:100000000C943E000C945B000C945B000C945B0021
:100010000C945B000C945B000C945B000C947406D5
:100020000C945B000C945B000C945B000C945B00E4
:100030000C945B000C945B000C945B000C945B00D4
:100040000C945B000C945B000C945B000C945B00C4
:100050000C945B000C945B000C945B000C945B00B4
:100060000C945B000C945B000C945B000C945B00A4
:100070000C945B000C945B000C945B0011241FBE7D
:10008000CFEFCDBFDFE3DEBF18E3A0E0B8E3EAEBDC
:10009000F5E202C005900D92A430B107D9F729E32B
:1000A000A4E0B8E301C01D92A136B207E1F70E94B7
:1000B0007A060C94DB110C9400009091040895FFD3
:1000C000FCCF809302080895CF93DF93EC018881E1
:1000D000811103C0DF91CF91089521960E945D00A8
:1000E000F6CFFF920F931F93CF93DF9300D000D0F2
:1000F00000D0CDB7DEB79C01892B59F480E326965A
:10010000CDBFDEBFDF91CF911F910F91FF900C9477
:100110005D00FE01319640E08F01C9016AE070E0A8
:100120000E94B90FF42E805D80832A30310538F0AB
:1001300041E04F0D31969B0184E0F812EECFF801BB
:10014000EF0DF11D80810E945D00FA948FEFF8128F
:10015000F6CF2696CDBFDEBFDF91CF911F910F91D5
:10016000FF900895CF93DF93EC0197FF06C08DE2D7
:100170000E945D00D195C195D109CE016AE070E081
:100180000E94CD0FC82FCB010E9471008EE20E9409
:100190005D0080E38C0FDF91CF910C945D00809324
:1001A000060681E080930B068093080680910B067B
:1001B00080FFFCCF80911006909111060895FC01FC
:1001C000AC014A5F5F4F80E037E09191892798E06A
:1001D000282F220F87FF08C0822F83279150C1F755
:1001E000E417F50791F70895822FF8CF809108045E
:1001F000002483FF0394802D08958091040885FFD7
:10020000FCCF86E791E00197F1F700C00000089568
:100210000E94F60081111BC08FE493EC0197F1F767
:1002200000C000000E94F6008115C1F08FE493EC3D
:100230000197F1F700C000000E94F600811113C081
:100240008FE493EC0197F1F700C00000089583ED6F
:1002500090E30197F1F700C00000DACF83ED90E35F
:100260000197F1F7DDCF83ED90E30197F1F7E2CF4E
:1002700090E18150909305042FEF30E742E0215048
:1002800030404040E1F700C00000909306042FE7A3
:1002900039EA43E0215030404040E1F700C000001F
:1002A0008111E7CF0895CF92DF92EF92FF92CF9323
:1002B000DF93CDB7DEB72897CDBFDEBF80910006B4
:1002C00081608093000682E58093020680E280933D
:1002D0000306809100068B7F8093000628E0298327
:1002E000E12CF12C670185E00E94CF00C80ED91ED9
:1002F000E11CF11C8981815089838111F4CF83E055
:10030000F694E794D794C7948A95D1F7C601892BC0
:1003100009F48DC02FEFC21623E0D20608F08AC080
:100320006FEF73E06C197D0980E090E00E94D20EBF
:1003300020E030E44CE156E40E942A0F69837A837E
:100340008B839C83B60180E090E00E94D20E9B01DB
:10035000AC0169817A818B819C810E94CE0E20E064
:1003600030E44CE156E40E94CE0E0E94070D20E0DE
:1003700030EE46E755E40E94CE0E2FE03FEC4BE511
:100380005BE30E94620E9B01AC0160E070E080E8DC
:100390009FE30E94CE0E23E333E948E853E40E9432
:1003A000610E69837A838B839C8320E030E040E296
:1003B00051E40E942A0F6D837E838F83988740E0EB
:1003C00050E09A0169817A818B819C810E948D0F16
:1003D00087FD1FC020E030E040E05FE36D817E815B
:1003E0008F8198850E94620E0E94330F693522E04A
:1003F00072078105910594F068E572E0CB012896BB
:10040000CDBFDEBFDF91CF91FF90EF90DF90CF9017
:10041000089520E030E040E05FEBE0CF68332FEF5D
:1004200072078207920754F768E37FEFE7CF88E30C
:100430009FEFE5CF88E592E0E2CF2F923F924F9277
:100440005F926F927F928F929F92AF92BF92CF9264
:10045000DF92EF92FF920F931F93CF93DF93CDB76D
:10046000DEB7A597CDBFDEBF898381E58093020605
:10047000109203068091000684608093000689E054
:100480000E94CF0080935F399093603981E0809320
:10049000260410924A0A10924B0A2981215029837E
:1004A0008093250449E24A95F1F700C08093260421
:1004B00059E25A95F1F700C02111EFCF809326043D
:1004C0008DEE92E00197F1F700C0000089E0809383
:1004D0000606A0904A0AB0904B0A2FE539E3EFE1F7
:1004E000F8E381E080930B068093080690910B0659
:1004F00090FFFCCF409110065091110641932E17AA
:100500003F0781F780904A0A90904B0AA0921D38CD
:10051000B0921E388A189B0880921B3890921C3823
:1005200010921A3820905F3930906039EFE1F8E38B
:1005300080E090E07C019701619170E0AB0142198D
:1005400053091AF4A101461B570B2417350714F45D
:100550009A017C010196803441E0940769F7E092AA
:100560001838F092193820931638309317382630FF
:10057000310508F42BC2A8E2B0E00E949A0F24E6ED
:1005800030E040E050E00E94E10F2530310514F4E6
:1005900025E030E0EFE1F8E300E010E0C8016C0195
:1005A000808190E0AC01421953094D835E8357FF6F
:1005B00005C0A101481B590B4D835E838D819E812F
:1005C0004D815E81421753070CF4F9C101151105E5
:1005D00009F4F0C1C416D5060CF0ECC1B9016C19D0
:1005E0007D09872F880F880B982F0E94D40E69836E
:1005F0007A838B839C836D817E816C197D09872F23
:10060000880F880B982F0E94D40E9B01AC01698142
:100610007A818B819C810E94CE0E6B018D839983A0
:10062000B80161507109872F880F880B982F0E949D
:10063000D40E96014D8159810E94620E8B018987EB
:100640009D83B40180E090E00E94D20E69837A839A
:100650008B839C8320E030E040EA53E40E94CE0E7E
:10066000698B7A8B8B8B9C8B40E050E09A01B801B0
:1006700089859D810E942E0F87FF04C000E010E055
:1006800019861D8229893A894B895C89B801898537
:100690009D810E942A0F20E030E040E05FE30E944D
:1006A000620E0E943A0F850120E030E0DC01CB01B0
:1006B0008A0D9B1DA11DB11D2C013D0158EB451A52
:1006C0005BE0550A61087108A8A219A31AA21BA22F
:1006D000E9E84E16E0E95E066104710408F076C1AF
:1006E0005C01892809F44FC140E251E469817A81B3
:1006F0008B819C810E94CE0E20E030E040EA53E4E2
:100700000E94CE0E69837A838B839C8320E030E045
:1007100040E85FE30E942E0F87FD35C12BED3FE6D9
:1007200045E758E469817A818B819C810E942A0F78
:100730002DEB37E346E855E30E942A0F69837A835D
:100740008B839C8328EA3CED45EC50E40E948D0F9E
:1007500018160CF418C12701612C712CF8E14F1AFE
:1007600051086108710821E1421621E05206610436
:1007700071040CF42EC180E1482E81E0582E612CCA
:10078000712C69817A818B819C810E94750B6D87A8
:100790007E878F87988B69817A818B819C810E946B
:1007A0000F0E688F798F8A8F9B8F2D853E854F85A1
:1007B0005889B901CA010E94620E6C8F7D8F8E8F9D
:1007C0009F8FA201415E574C4D8B5E8B00E010E085
:1007D0001DA21CA2480119821D827401ED89FE89A7
:1007E0006191ED8BFE8B70E062197309872F880F82
:1007F000880B982F0E94D40E69877A878B879C87F5
:10080000940149815D816C8D7D8D8E8D9F8D0E94BF
:100810002A0F9B01AC0169857A858B859C850E9496
:10082000620E98014DA15CA10E94610E6B01898747
:100830009F8BFFEFEF1AFF0A840129812DA34D81C1
:100840004CA350E3E516F10409F0C9C02C8F4D8B81
:1008500094014C8D5D896D857E858F8598890E9478
:100860002A0F9B01AC01B60189859F890E94610E08
:100870006B017C0194014C8D5D89688D798D8A8D29
:100880009B8D0E942A0F9601A7010E94160B698377
:100890007A838B839C83B201C3010E94D40E298981
:1008A0003A894B895C890E942A0F6D837E838F83EE
:1008B000988768A179A18AA19BA10E94D20E9B0171
:1008C000AC016D817E818F8198850E94620E20E04F
:1008D00030E040E251E40E94CE0E20E030E44CE1F2
:1008E00057E40E942A0F2DEB37E346E855E30E94B8
:1008F0002A0F6D837E838F8398872BED3FE049EC31
:1009000050E469817A818B819C810E94CE0E9B018B
:10091000AC016D817E818F8198850E94610E40E0DF
:1009200050E09A010E94620E6B017C010E94E80B6C
:100930009B01AC01B601C7010E94610E2BED3FE0A7
:1009400049EC50E40E942A0F69837A838B839C834D
:100950000E94750B6093123870931338809314388B
:100960009093153869817A818B819C810E940F0E4A
:1009700060930E3870930F3880931038909311382D
:1009800081E080931A38C501A596CDBFDEBFDF9107
:10099000CF911F910F91FF90EF90DF90CF90BF907C
:1009A000AF909F908F907F906F905F904F903F900F
:1009B0002F900895C12CD12C1D82198231CE3196F1
:1009C0000F5F1F4FE016F10608F0E9CDA12CB12C06
:1009D000DACF77FED6CE612C712C2301D2CE460120
:1009E000598559838F898D83F9CE7F928F929F92FB
:1009F000AF92BF92CF92DF92EF92FF920F931F932D
:100A0000CF93DF93CDB7DEB7A597CDBFDEBF8B0108
:100A10008DA3792E80E48093060480910006816086
:100A20008093000683ED90E30197F1F700C000008A
:100A300085E00E94CF008AE00E941D020097C1F16C
:100A40004C01A12CB12CB8018DA1972D9401A501C9
:100A50000E948C10EDE2BE2EF1E3CF2EF1E0DF2EEE
:100A6000E12CF12C87010E94C810A0910238B091AE
:100A700003380E94920FA70128EE33E00E94031072
:100A8000809100389091013879018A01092E000C7B
:100A90000008E80EF91E001D101DC701D801B7FDA2
:100AA00004C018E18931914008F41AE01DA302C086
:100AB00008E10DA309E0E12CF12C67014601560184
:100AC000712C10E08DA10E941D02009751F1FE01D2
:100AD0003196E10FF11DE10FF11D8083918380912B
:100AE0001A388115E9F0209112383091133840916D
:100AF000143850911538B401C5010E94620E4B01A3
:100B00005C0120910E3830910F384091103850918F
:100B10001138B601C7010E94620E6B017C0173940B
:100B20001F5F8BE792E90197F1F700C000000150C9
:100B300049F6809100068E7F8093000680E48093C2
:100B4000050410930D3870920C38809208389092FA
:100B50000938A0920A38B0920B38C0920438D0926B
:100B60000538E0920638F092073840E050E09A01EC
:100B7000123008F499C0DE011196CD0121E0FC018C
:100B8000628173813FEF320FAC01FA01E080F180A6
:100B90006E157F0540F4FA01E282F3823150425033
:100BA00051093F3F91F7E1E0E30FEE0FFF0BEA0F32
:100BB000FB1F6083718331E0320F0296131387C0ED
:100BC000812F869590E0880F991FFD01E80FF91F8E
:100BD000408151817E01F3E1EF0EF11C57016D015F
:100BE00030E0F601619171916F014617570708F0E7
:100BF00072C0641B750BF501619371935F01231340
:100C000068C031E0F701628173811FEF130F670144
:100C1000F601A080B1806A157B0548F4F601A28236
:100C2000B3821150F2E0CF1AD1081F3F89F7E1E0FB
:100C3000E10FEE0FFF0BEA0FFB1F628B738BF2E0ED
:100C4000EF0EF11C23134CC08A0F9B1FFC0162891D
:100C50007389CB01880F991F860F971F02967C011D
:100C600030E080E090E0BC01ED91FD916F01C41A8D
:100C7000D50A4E175F0718F06A01CE1ADF0AEC1486
:100C8000FD0428F06E0F7F1F811D911D0F5F231340
:100C900029C09A0140E050E0011531F0202F30E0EA
:100CA00040E050E00E94E10FB901CA01A596CDBF16
:100CB000DEBFDF91CF911F910F91FF90EF90DF90FA
:100CC000CF90BF90AF909F908F907F900895232FEB
:100CD00056CF3F5F86CFFA01E61BF70BBF018BCFE4
:100CE0003F5F90CF3F5FC0CF8F9381E080935301F0
:100CF0008F911895CDB7DEB76D97CDBFDEBF88ED6C
:100D000021E030E084BF2093610088E080930204FA
:100D10008093130420E1209301042093060440E211
:100D20004093020484E08093150430E4309301047E
:100D30003093050491E090932104909326048093CE
:100D4000210480932504209322048093340480930B
:100D500010048093110480931204809317048093ED
:100D6000310480933304809335048093500480933E
:100D7000510480935204809353046BE571E06093B7
:100D800008087093090823E02093070830930608A9
:100D900082E58093020640930306109205061092A6
:100DA00000068091A200887F82608093A2008091DB
:100DB000A10088608093A1008FEF8093A906909393
:100DC000A8068BE180938A062093880683E18093AE
:100DD00082012093920182E08093410A9093440A19
:100DE0001092450A10924A0A10924B0A9093460AB2
:100DF0009093400A8091410180FDFCCF1092470101
:100E00008091510180FDFCCF81E08093520189E502
:100E10008093500147E050E060E070E0CE01019621
:100E20000E94971189819A81823E9745C9F41F815A
:100E3000CE0101960E94DF00181312C08B819C81A5
:100E40009C01255F3140273E334050F480930238A7
:100E5000909303388D819E81809300389093013860
:100E6000109140001093400085E894EA0E946400CD
:100E7000E12FE295EF70F0E0E755FA4580810E949E
:100E80005D001F70E12FF0E0E755FA4580810E9478
:100E90005D0080910238909103388D3D934009F0B8
:100EA0001CC18091003890910138883B9F4F09F018
:100EB00014C180E694EA0E9464000E94FD000E9432
:100EC000F600811509F463C04FE956E861E041502E
:100ED00050406040E1F700C000000E94F60081151C
:100EE00009F455C00E9453012EE532E0DC010E9456
:100EF00022102AE030E040E050E00E940310C901D7
:100F0000DA018C5D914FAA4FBF4F88879987AA87D6
:100F1000BB8780EB94EA0E94640087EC94EA0E940D
:100F200064000E94FD0081E00E9438010E940801D7
:100F3000688579858A859B850E94F5046B017C0113
:100F400086EE94EAC114D104E104F104E1F083E0F7
:100F500095EA0E9464000E94FD0082E00E94380130
:100F60000E940801688579858A859B850E94F50421
:100F7000688B798B8A8B9B8B672B682B692B09F08D
:100F8000AFC082E295EA0E9464000E94FD0083E007
:100F900090E1909305047FEDA3E9B4E07150A04087
:100FA000B040E1F700C00000909306040FED13E994
:100FB00024E0015010402040E1F700C000008150C3
:100FC00041F7212C312C80915000897F82608093E1
:100FD00050008091500081608093500078948895F3
:100FE000809150008E7F809350000E94F600811502
:100FF00051F38FE493EC0197F1F700C000000E94D9
:10100000F600811501F39FEF291A390AA0E1A09398
:1010100005040E945301888F998F2EE532E0DC0190
:101020000E9422102AE030E040E050E00E940310CD
:10103000B901CA016C5D714F8A4F9F4F68877987EC
:101040008A879B870E94F5046B017C0170E1709395
:10105000060483E795EA0E946400C1010E947100C2
:1010600080E20E945D0080910D38888B823030F0E4
:10107000C114D104E104F10409F0FEC085E795EA4A
:101080000E946400888D998D0E94B20080E895EAE4
:101090000E946400A8898A2F90E00E94710084E871
:1010A00095EA0E94640089E090E00E94710086E861
:1010B00095EA0E94640083EE94EA0E9464000E9414
:1010C000FD000E94F600811509F47DCF87EA91E6C4
:1010D0000197F1F700C00000F4CF83E794EAEBCE6C
:1010E0005B85550F000B102F98010C870D872E87FD
:1010F0003F8716012701A884B984CA84DB84EC8465
:10110000FE2C0E2D1E2D9101A20160E070E0CB019E
:101110000E943410A12CBDE2BB2E11E3C12E11E0C0
:10112000D12EE12CF12C87010E94C81029013A012F
:10113000688979898A899B89AB01BC01C701488B81
:10114000598B6A8B7B8B1C8A1D8A1E8A1F8AA884F6
:10115000B984CA84DB84EC84FE2C0E2D1E2D9A01EA
:10116000AB01BC010E943410A12C0DE2B02EE1E3D2
:10117000CE2EE1E0DE2EE12CF12C87010E94C8107A
:10118000C901DA0182019301065F1F4F2F4F3F4FC4
:10119000081719072A073B071CF08FE395EAF3CEDF
:1011A000BC01CA0164197509860997090E94D40E09
:1011B0009B01AC0186E993E4B7010E94CE0E4B017E
:1011C0005C014AE754E497010E942A0F0E944F0DE8
:1011D0006B01B201C3010E94D40E9401A5010E94CB
:1011E0002A0F9B01AC0160E070E088EC92E40E9461
:1011F000610E0E944F0D4B018B0182EE97E58983B2
:101200009A83CB82DC828D829E821F82CE010196E0
:101210000E94DF008F8347E050E060E070E0CE0185
:1012200001960E949B11C0920238D092033880929E
:101230000038909201388BE595EA0E946400C6015F
:101240000E9471008FE695EA0E94640097FE07C035
:101250008DE20E945D000027112708191909C801B5
:101260000E94710083EE94EA0E9464000E94FD00D7
:1012700085E00E9438018BCE3B85330F4408560130
:101280006701E12CF12C8701288539854A855B852A
:10129000642D742D842D942D0E943410A12CEDE228
:1012A000BE2EF1E3CF2EF1E0DF2E0E94C810B9016F
:1012B0002091023830910338CA01432F440F440B68
:1012C000542F0E94A90FA70128EE33E00E940310BB
:1012D000809100389091013879018A01092E000C23
:1012E0000008E80EF91E001D101DC701D8018F3F30
:1012F0000FEF9007A105B1050CF45CC18EEF9FEFD5
:101300007C0110910C38133008F460C180900438CF
:1013100090900538A0900638B09007384090083873
:101320005090093860900A3870900B389201A301F0
:10133000B201C3010E942A0F6C877D878E879F8729
:101340009401A501B401C5010E942A0F9B01AC01C3
:101350006C857D858E859F850E94620E0E941D0E84
:101360006C877D878E879F87612F70E080E090E09B
:101370000E94D20E9B01AC016C857D858E859F8578
:101380000E94CE0E6A8F7B8F8C8F9D8F20E030E085
:1013900048EC52E40E942A0F20E030E040E05FE396
:1013A0000E94620E0E943A0FD62E9201A301B40150
:1013B000C5010E94160B2BED3FE049EC50E40E9462
:1013C000CE0E762E072F182FC92E40E050E09A013E
:1013D0000E942E0F87FF0EC020E030E040E85FE360
:1013E000672D702F812F9C2D0E94620E762E072F65
:1013F000182FC92E20E030E041E655E4672D702F0C
:10140000812F9C2D0E942A0F0E944F0D6C877D8793
:101410002AE939E949E15FE36A8D7B8D8C8D9D8DE9
:101420000E942E0F87FDDAC0688579858A859B85A5
:101430000E94D40E20E030E44CE957E40E94CE0E26
:101440004B015C019B01AC01672D702F812F9C2DFE
:101450000E942A0F2B013C01B70180E090E00E941E
:10146000D20E688779878A879B879201A3010E94A1
:10147000610E9401A5010E94CE0E0E94EB0D9B010E
:10148000AC01B401C5010E942A0F9201A3010E9480
:10149000620E762E072F182FC92E288539854A858A
:1014A0005B850E94610E9B01AC015F7728873987BD
:1014B0004A875B8720E030E040E05FE3B401C5018C
:1014C0000E942A0F9B01AC01688579858A859B85DE
:1014D0000E948D0F18160CF481C040E050E09A0174
:1014E000672D702F812F9C2D0E942E0F87FD69C0C4
:1014F00020E03EEF4FE757E4672D702F812F9C2DA2
:101500000E948D0F18160CF05AC0712C0EEF1FE7B9
:1015100087E4672D702F982F812F0E944F0D162F73
:10152000072F88E895EA0E946400812F902F0E947F
:1015300071008BE895EA0E946400C7010E94710067
:1015400083E995EA0E946400EC84FD8400EFE016D4
:1015500001EFF00609F045C088E995EA0E946400B1
:101560008BE995EA0E9464008D2D90E00E94710045
:101570008CE795EA0E946400888D998D0E94B200E4
:1015800081EA95EA0E9464001889812F90E00E9408
:10159000710084E895EA0E94640089E090E00E946E
:1015A000710084EA95EA0E94640080911638909157
:1015B00017387BCDB7FFA4CE80E090E0A1CE8C2D74
:1015C000A8CF712C00E010E080E0A3CFD12C182F21
:1015D000092F30EF3C8741EF4D87A3CF1E2D0F2DF4
:1015E000A0CF8C859D856AE070E00E94CD0F182FFA
:1015F000CB010E9471008EE20E945D0080E3810FAA
:101600000E945D00ADCF0E94580C60F080E891E030
:1016100009F49EEF0E945F0C28F040E851E071F45D
:101620005EEF0CC00C942E0C0C94F00CE92FE078BB
:101630000E94B60C40F3092E052AB1F3261737078E
:101640004807590738F00E2E07F8E02569F0E02525
:10165000E0640AC0EF6307F8009407FADB01B90100
:101660009D01DC01CA01AD01EF930E948D0B0E9428
:10167000910C0E94460B5F91552339F02BED3FE012
:1016800049E450FD49EC0C94620E0895DF93DD2788
:10169000B92FBF7740E85FE31616170648075B07C8
:1016A00018F4D92F0E94F70C9F938F937F936F9319
:1016B0000E945D0EEAEBF3E20E94310C0E94910C55
:1016C0002F913F914F915F910E94910DDD2351F039
:1016D0009058A2EA2AED3FE049EC5FE3D0785D271D
:1016E0000E94790EDF910C94910C0E94680CE39596
:1016F0000C94A20C0E945F0C58F00E94580C40F011
:1017000029F45F3F29F00C94FF0B51110C94F10C5C
:101710000C942E0C0E94B60C68F39923B1F3552358
:1017200091F3951B550BBB27AA27621773078407F4
:1017300038F09F5F5F4F220F331F441FAA1FA9F38A
:1017400035D00E2E3AF0E0E832D091505040E69578
:10175000001CCAF72BD0FE2F29D0660F771F881FD9
:10176000BB1F261737074807AB07B0E809F0BB0BCC
:10177000802DBF01FF2793585F4F3AF09E3F5105E0
:1017800078F00C94FF0B0C94F10C5F3FE4F3983E5F
:10179000D4F3869577956795B795F7959F5FC9F7C9
:1017A000880F911D9695879597F90895E1E0660F4A
:1017B000771F881FBB1F621773078407BA0720F0C3
:1017C000621B730B840BBA0BEE1F88F7E09508952C
:1017D0000E94D80C90F09F3748F4911116F00C94A9
:1017E000F10C60E070E080E89FEB089526F41B1692
:1017F000611D711D811D0C94050C0C94200C97F932
:101800009F6780E870E060E00895882371F4772393
:1018100021F09850872B762F07C0662311F4992763
:101820000DC09051862B70E060E02AF09A95660F0B
:10183000771F881FDAF7880F9695879597F908958F
:101840009F3F31F0915020F4879577956795B79534
:10185000880F911D9695879597F908959FEF80ECD5
:101860000895DF93CF931F930F93FF92EF92DF9230
:101870007B018C01689406C0DA2EEF010E94910D65
:10188000FE01E894A5912591359145915591A6F3D6
:10189000EF010E94790EFE019701A801DA9469F721
:1018A000DF90EF90FF900F911F91CF91DF910895FE
:1018B00000240A941616170618060906089500242F
:1018C0000A94121613061406050608950C942E0C9D
:1018D0000E94BE0CD8F3E894E0E0BB279F57F0F0DD
:1018E0002AED3FE049EC06C0EE0FBB0F661F771FE5
:1018F000881F28F0B23A62077307840728F0B25AAB
:10190000620B730B840BE3959A9572F7803830F471
:101910009A95BB0F661F771F881FD2F790480C94CB
:10192000220C092E0394000C11F4882352F0BB0FF3
:1019300040F4BF2B11F460FF04C06F5F7F4F8F4FE7
:101940009F4F0895EF93E0FF07C0A2EA2AED3FE022
:1019500049EC5FEB0E94790E0E94910C0F9003946A
:1019600001FC9058E7EEF3E20C94160F57FD9058E7
:10197000440F551F59F05F3F71F04795880F97FB53
:10198000991F61F09F3F79F087950895121613060D
:101990001406551FF2CF4695F1DF08C0161617063C
:1019A0001806991FF1CF8695710561050894089571
:1019B0000E94BE0CA0F0BEE7B91788F4BB279F3881
:1019C00060F41616B11D672F782F8827985FF7CF20
:1019D000869577956795B11D93959639C8F30895C7
:1019E000E894BB2766277727CB0197F908959B01D9
:1019F000AC0160E070E080E89FE30C94CE0E16F03E
:101A00000C94200C0C942E0C68940C94FF0B0E94E8
:101A1000BE0CA8F39923C1F3AEF3DF93CF931F93CA
:101A20000F93FF92C92FDD2788232AF02197660F95
:101A3000771F881FDAF720E030E040E85FEB9FE394
:101A4000883920F0803E38F021968F770E94620E10
:101A5000E5E0F4E204C00E94620EE2E3F4E20E94D8
:101A6000310C8B01BE01EC01FB2E6F57710975958E
:101A7000771F880B990B0E94D40E28E132E741E3CF
:101A80005FE30E94910DAF2D9801AE01FF900F9181
:101A90001F91CF91DF910E94790E0C94910C0E94BE
:101AA000BE0C58F19E5760F19851A0F0E9F09830C3
:101AB00020F5092E9927660F771F881F991F0A9412
:101AC000D1F712C0062E672F782F8827985F11F460
:101AD000000C07C0993FB4F3869577956795939569
:101AE000D9F7611D711D811D3EF49095809570950B
:101AF00061957F4F8F4F9F4F089568940C94F10C20
:101B00000C94F00C0E94580C38F00E945F0C20F0EE
:101B1000952311F00C94FF0B0C942E0C11240C94B3
:101B2000F10C0E94B60C70F3959FC1F3950F50E035
:101B3000551F629FF001729FBB27F00DB11D639F7F
:101B4000AA27F00DB11DAA1F649F6627B00DA11D25
:101B5000661F829F2227B00DA11D621F739FB00DCB
:101B6000A11D621F839FA00D611D221F749F33273B
:101B7000A00D611D231F849F600D211D822F762FD4
:101B80006A2F11249F5750409AF0F1F088234AF0B1
:101B9000EE0FFF1FBB1F661F771F881F915050401D
:101BA000A9F79E3F510580F00C94FF0B0C94F10CAB
:101BB0005F3FE4F3983ED4F3869577956795B795A4
:101BC000F795E7959F5FC1F7FE2B880F911D9695BE
:101BD000879597F908950E94BE0CE8F09E37E8F0CB
:101BE0009639B8F49E3848F4672F782F8827985F85
:101BF000F9CF86957795679593959539D0F3B62F5C
:101C0000B1706B0F711D811D20F4879577956795D5
:101C100093950C94050C0C94200C0C94F10C9F9350
:101C20000E94680C0F9007FCEE5F0C94A20C19F454
:101C300016F40C942E0C0C94200C0E94BE0CB8F3DD
:101C40009923C9F3B6F39F57550B87FF0E940F0FD7
:101C50000024A0E640EA900180585695979528F414
:101C6000805C660F771F881F20F02617370748070C
:101C700030F4621B730B840B202931294A2BA69563
:101C800017940794202531254A2758F7660F771FA8
:101C9000881F20F026173707480730F4620B730BB4
:101CA000840B200D311D411DA09581F7B901842FB2
:101CB0009158880F9695879508959B01AC010C94D7
:101CC0002A0F5058BB27AA270E94790E0C94910C1A
:101CD0000E94580C38F00E945F0C20F039F49F3FAE
:101CE00019F426F40C942E0C0EF4E095E7FB0C94FA
:101CF000FF0BE92F0E94B60C58F3BA17620773075F
:101D00008407950720F079F4A6F50C94F00C0EF4F6
:101D1000E0950B2EBA2FA02D0B01B90190010C01FB
:101D2000CA01A0011124FF27591B99F0593F50F413
:101D3000503E68F11A16F040A22F232F342F44276B
:101D4000585FF3CF469537952795A795F040539563
:101D5000C9F77EF41F16BA0B620B730B840BBAF033
:101D60009150A1F0FF0FBB1F661F771F881FC2F79E
:101D70000EC0BA0F621F731F841F48F487957795B2
:101D80006795B795F7959E3F08F0B0CF9395880F6C
:101D900008F09927EE0F9795879508950E948A0B72
:101DA0000C94910CE89409C097FB3EF490958095B3
:101DB000709561957F4F8F4F9F4F9923A9F0F92F11
:101DC00096E9BB279395F695879577956795B7958F
:101DD000F111F8CFFAF4BB0F11F460FF1BC06F5F75
:101DE0007F4F8F4F9F4F16C0882311F096E911C087
:101DF000772321F09EE8872F762F05C0662371F0A8
:101E000096E8862F70E060E02AF09A95660F771FBB
:101E1000881FDAF7880F9695879597F9089591505E
:101E20005040660F771F881FD2F708959F938F93B6
:101E30007F936F93FF93EF939B01AC010E942A0F56
:101E4000EF91FF910E94310C2F913F914F915F9143
:101E50000C942A0F0E94910D0C94910C0E94690F12
:101E600008F481E008950E943A0F6894B1110C942F
:101E7000F10C08950E94BE0C88F09F5798F0B92F7E
:101E80009927B751B0F0E1F0660F771F881F991FAF
:101E90001AF0BA95C9F714C0B13091F00E94F00C55
:101EA000B1E008950C94F00C672F782F8827B85F65
:101EB00039F0B93FCCF3869577956795B395D9F707
:101EC0003EF490958095709561957F4F8F4F9F4F11
:101ED0000895990F0008550FAA0BE0E8FEEF1616BB
:101EE0001706E807F907C0F012161306E407F5070E
:101EF00098F0621B730B840B950B39F40A2661F082
:101F0000232B242B252B21F408950A2609F4A14024
:101F1000A6958FEF811D811D08950E94690F08F419
:101F20008FEF08950E949A0F332312F48A1B9B0BA4
:101F30000C942410A29FB001B39FC001A39F700D09
:101F4000811D1124911DB29F700D811D1124911DC1
:101F50000895DB018F939F930E942910BF91AF9149
:101F6000A29F800D911DA39F900DB29F900D1124F3
:101F70000895AA1BBB1B51E107C0AA1FBB1FA617D0
:101F8000B70710F0A61BB70B881F991F5A95A9F722
:101F900080959095BC01CD01089597FB072E16F40E
:101FA000009407D077FD09D00E94B90F07FC05D037
:101FB0003EF4909581959F4F0895709561957F4F60
:101FC0000895A1E21A2EAA1BBB1BFD010DC0AA1F7A
:101FD000BB1FEE1FFF1FA217B307E407F50720F092
:101FE000A21BB30BE40BF50B661F771F881F991F0D
:101FF0001A9469F760957095809590959B01AC0156
:10200000BD01CF010895052E97FB1EF400940E9498
:102010001A1057FD07D00E94E10F07FC03D04EF4C1
:102020000C941A1050954095309521953F4F4F4F85
:102030005F4F089590958095709561957F4F8F4F74
:102040009F4F08950E949A0FB7FF0895821B930B2C
:1020500008950E949A0FA59F900DB49F900DA49F84
:10206000800D911D11240895DF93CF931F930F933B
:102070009A9DF02D219FF00D8B9DF00D8A9DE02DF6
:10208000F10D039FF00D029FE00DF11D4E9DE00D3F
:10209000F11D5E9DF00D4F9DF00D7F936F93BF92EC
:1020A000AF925F934F93D5010E949A0F8B01AC01C1
:1020B000D7010E949A0FEB01E80FF91FD6010E9489
:1020C00083102F913F91D6010E949A0FC60FD71F00
:1020D000E81FF91FAF91BF910E9483102F913F918C
:1020E0000E949A0FC60FD71FE81FF91FD6010E9442
:1020F0009A0FE60FF71F9801BE01CF010F911F91B4
:10210000CF91DF9108950E949A0F460F571FC81F65
:10211000D91F08F43196089597FB57FF0C949C1033
:102120009F938F930E949C106E1B7F0BAF91BF916A
:102130008A0B9B0B0895E894DF93CF93FC01DB019E
:102140000E949A0F7F936F93E9019A01AC01BF93AC
:10215000AF933F932F93DF010E949A0F26F46C1BDD
:102160007D0B820B930B9E01EB01FC010E948310FF
:10217000AF91BF912F913F910E948310BE01CF017B
:10218000F9012F913F91CF91DF910895689401C09B
:10219000E894F92FF12B12F00C94FA10A0E0B0E0C3
:1021A000E4EDF0E10C946C11092E059422F40E94E8
:1021B0005611112392F4F0E80F26FFEFE094F0940B
:1021C00000951095B094C094D094A194BF0ACF0A02
:1021D000DF0AEF0AFF0A0F0B1F0B0E94051107FC15
:1021E0000E945611CDB7DEB7ECE00C9485116894CF
:1021F00001C0E8948F929F92CF93DF930E940511C4
:10220000DF91CF919F908F90089588249924F401B5
:10221000E401B0E49F93AA279A158B049C04ED0572
:10222000FE05CF05D007A10798F4AD2FDC2FCF2FE7
:10223000FE2FE92D982C892E982F872F762F652F2A
:10224000542F432F322F2227B85031F7BF9127C088
:102250001B2EBF91BB27220F331F441F551F661F24
:10226000771F881F991F881C991CEE1FFF1FCC1F0A
:10227000DD1FAA1FBB1F8A149B04EC05FD05CE05BC
:10228000DF05A007B10748F08A189B08EC09FD0993
:10229000CE09DF09A00BB10B21601A94E1F62EF4F0
:1022A0009401AF01BE01CD01000C089560957095B9
:1022B0008095909530954095509521953F4F4F4F83
:1022C0005F4F6F4F7F4F8F4F9F4F08952F923F92D9
:1022D0004F925F926F927F928F929F92AF92BF9236
:1022E000CF92DF92EF92FF920F931F93CF93DF93E2
:1022F000CDB7DEB7CA1BDB0BCDBFDEBF09942A8882
:10230000398848885F846E847D848C849B84AA8409
:10231000B984C884DF80EE80FD800C811B81AA8196
:10232000B981CE0FD11DCDBFDEBFED010895605044
:102330007C4E0C94D211DC01A40FB51F41505040CB
:1023400048F0CB01840F951F2E910E94AC11415093
:102350005040D0F70895262F0E94CE11008002161B
:1023600019F00E94B711019701970895262FAF9396
:10237000BF93E0E0F0E1328131FDFDCFDC01A05000
:10238000BC4E2C932DE924BF23E020830196BF91FE
:10239000AF91089503D0808199270895FC01E05002
:1023A000FC4E0895FB01DC0102C001900D924150EA
:1023B0005040D8F70895F894FFCF084AD73B3BCE5A
:1023C000016E84BCBFFDC12F3D6C74319ABD568334
:1023D0003DDA3D00C77F11BED9E4BB4C3E916BAAEC
:1023E000AABE000000803F05A84CCDB2D44EB9383B
:1023F00036A9020C50B9918688083CA6AAAA2ABE22
:10240000000000803F08000000BE922449123EAB4D
:10241000AAAA2ABECDCCCC4C3E00000080BEABAAFE
:10242000AAAA3E00000000BF000000803F0000009C
:102430000000084178D3BB4387D1133D190E3CC33C
:10244000BD4282AD2B3E68EC8276BED98FE1A93EBB
:102450004C80EFFFBE01C4FF7F3F00000000000082
:102460002063616C3D64656661756C74203D3D3D23
:102470000D0A002063616C3D454550524F4D203D93
:102480003D3D0D0A003D3D3D205745544920756CAA
:10249000747261736F6E6963206D65746572202854
:1024A0004574617032292052535446523D307800B1
:1024B0000D0A3D3D3D204B414C49425241434A416A
:1024C000203D3D3D0D0A0055737461772063656CB6
:1024D000206E6120313030206D6D2C206B6C696B6B
:1024E0002E2E2E0D0A0052454631206272616B205D
:1024F00065636861202D2070727A657277616E6FF6
:102500000D0A0055737461772063656C206E61203D
:10251000343030206D6D2C206B6C696B2E2E2E0D9F
:102520000A0052454632206272616B206563686121
:10253000202D2070727A657277616E6F0D0A0042ED
:102540006C65646E652070756E6B7479202D2070DB
:10255000727A657277616E6F0D0A005A61706973E5
:10256000616E6F20454550524F4D3A20613D00202D
:10257000623D0023004E4F204543484F20543D000C
:10258000432028002F002900443D006D6D20284481
:10259000633D002070683D002D2D0020706C763D5D
:1025A0000043200020706B3D00303132333435362B
:0A25B00037383941424344454600E4
:0425BA00B8FFDD0386
:00000001FF
