:100000000C943E000C9450000C9450000C94500042
:100010000C9450000C9450000C9450000C94D4009C
:100020000C9450000C9450000C9450000C94500010
:100030000C9450000C9450000C9450000C94500000
:100040000C9450000C9450000C9450000C945000F0
:100050000C9450000C9450000C9450000C945000E0
:100060000C9450000C9450000C9450000C945000D0
:100070000C9450000C9450000C94500011241FBE9E
:10008000CFEFCDBFDFE3DEBF29E3A0E0B8E301C0DF
:100090001D92AC34B207E1F70E94DA000C94150C03
:1000A0000C9400009091040895FFFCCF8093020807
:1000B0000895CF93DF93EC018881811103C0DF9114
:1000C000CF91089521960E945200F6CFFF920F9390
:1000D0001F93CF93DF9300D000D000D0CDB7DEB711
:1000E0009C01892B59F480E32696CDBFDEBFDF91BA
:1000F000CF911F910F91FF900C945200FE01319609
:1001000040E08F01C9016AE070E00E94910AF42E7C
:10011000805D80832A30310538F041E04F0D319603
:100120009B0184E0F812EECFF801EF0DF11D808104
:100130000E945200FA948FEFF812F6CF2696CDBFA8
:10014000DEBFDF91CF911F910F91FF900895CF9364
:10015000DF93EC0197FF06C08DE20E945200D1951B
:10016000C195D109CE016AE070E00E94A50AC82FAE
:10017000CB010E9466008EE20E94520080E38C0F49
:10018000DF91CF910C9452008093060681E080931A
:100190000B068093080680910B0680FFFCCF8091B0
:1001A00010069091110608958F9381E0809353017A
:1001B0008F911895CDB7DEB7ED97CDBFDEBF88ED37
:1001C00021E030E084BF2093610088E08093020446
:1001D0008093130420E1209301042093060440E25D
:1001E0004093020484E08093150430E430930104CA
:1001F0003093050491E0909321049093260480931A
:100200002104809325042093220480933404809356
:100210001004809311048093120480931704809338
:100220003104809333048093350480935004809389
:10023000510480935204809353046BE571E0609302
:1002400008087093090823E02093070830930608F4
:1002500082E58093020640930306109205061092F1
:1002600000068091A200887F82608093A200809126
:10027000A10088608093A1008FEF8093A9069093DE
:10028000A8068BE180938A062093880683E18093F9
:1002900082012093920182E08093410A9093440A64
:1002A0001092450A10924A0A10924B0A9093460AFD
:1002B0009093400A8091410180FDFCCF109247014C
:1002C0008091510180FDFCCF81E08093520189E54E
:1002D0008093500183E090E1909305042FED33E982
:1002E00044E0215030404040E1F700C000009093CE
:1002F00006045FED63E9A4E051506040A040E1F7DF
:1003000000C00000815041F7109140001093400060
:1003100084ED98E90E945900E12FE295EF70F0E03A
:10032000E95CF64680810E9452001F70E12FF0E0E8
:10033000E95CF64680810E9452008FEF98E90E94A6
:1003400059008091040885FFFCCFE6E7F1E0319782
:10035000F1F700C0000019A61AA680915000897F0D
:1003600082608093500080915000816080935000A3
:1003700078948895809150008E7F80935000809172
:10038000080483FDEACF8FE493EC0197F1F700C0F6
:10039000000080910804182F187083FDDECFA9A5F6
:1003A000BAA51196A9A7BAA780E480930604809104
:1003B0000006816080930006E3EDF0E33197F1F7EA
:1003C00000C0000085E00E94C40080E18093050425
:1003D00082E58093020680E2809303068091000606
:1003E0008B7F8093000685E00E94C4005C0100972B
:1003F00009F4D5C18F3FF3E09F0708F0D5C16FEF37
:1004000073E0681B790B80E090E00E94C90920E04E
:1004100030E44CE156E40E941A0A6B017C01B501FC
:1004200080E090E00E94C9099B01AC01B601C701C0
:100430000E94C50920E030E44CE156E40E94C50961
:100440000E94440820E030EE46E755E40E94C509CA
:100450002FE03FEC4BE55BE30E9459099B01AC01A7
:1004600060E070E080E89FE30E94C50923E333E980
:1004700048E853E40E9458096B017C0120E030E019
:1004800040E251E40E941A0A6B8B7C8B8D8B9E8B11
:1004900040E050E09A01B601C7010E947D0A40E0A9
:1004A00030E02FE387FD2FEB822F20E0582F6B8960
:1004B0007C898D899E890E9459090E94230A693589
:1004C00022E07207810591050CF45FC168E572E0D6
:1004D0006B8B7C8B2EE532E0AB89BC890E94FA0ADB
:1004E0002AE030E040E050E00E94DB0AC901DA0176
:1004F0008C5D914FAA4FBF4F8F8B988FA98FBA8F6A
:100500009F899B8FA88DAF8FB98DBBA34A8C99E033
:10051000592E99249394E1E5E09302061092030684
:100520008091000684608093000689E00E94C400E8
:1005300080930238909303389092260410924A0ACE
:1005400010924B0A0AE090922504F9E2FA95F1F72D
:1005500000C09092260429E22A95F1F700C00150CC
:1005600091F7909226048DEE92E00197F1F700C08A
:10057000000089E080930606A0904A0AB0904B0ADA
:10058000E4E0F8E390920B069092080680910B0647
:1005900080FB882480F880FFF9CF8091100690912D
:1005A00011068193A4E4B9E3AE17BF0759F7A091F0
:1005B0004A0AB0914B0AE0E4F1E0E0934839F09345
:1005C0004939A0920038B0920138AA19BB09A0930A
:1005D0004639B0934739C0900238D090033884E050
:1005E000E82E88E3F82E20E030E03901A301C301B2
:1005F000F70161917F01E62FF0E0BF016C197D09E1
:100600001AF4B6016E1B7F0B011105C0673071052E
:1006100014F0082D9C014617570714F4AB013C0158
:1006200001968034F1E09F0719F760924439709287
:10063000453940934A3950934B39011509F444C068
:100640004830510508F440C077247394710E41E09E
:10065000242E312C2C0E3D1E210E311C210E311C5E
:100660000E94820A20E431E040E050E00E94B90A92
:10067000B901CA016A0D7B1D811D911D2B8D3F8D16
:100680004BA1542D0E94010BA12CEDE2BE2EF1E3F3
:10069000CF2EF1E0DF2EE12CF12C87010E943D0BE3
:1006A0006A01C901D60186549109A109B1098F3F98
:1006B0002FEF9207A105B1050CF47BC08EEF9FEFE1
:1006C000F10180839183172D8BE792E90197F1F770
:1006D00000C000005A9409F01ECF80E18093060408
:1006E000809100068E7F8093000680E4809305044D
:1006F000FE0131967F01811608F45FC086E099E91A
:100700000E94590089A59AA50E94660080E20E9475
:1007100052001BA71CA6123008F06CC088E099E9B3
:100720000E94590080E199E90E9459008B899C89B7
:100730000E94A70084E199E90E9459008BA59CA51D
:100740000E94660088E199E90E94590089E090E0E2
:100750000E9466008AE199E90E94590083E099E9C4
:100760000E9459008091040885FFFCCF86E791E044
:100770000197F1F700C000008091080483FDEDCDE2
:10078000A7EAB1E61197F1F7F5CF68333FEF7307AA
:10079000830793070CF09CCE68E37FEF99CE48E384
:1007A0005FEF4B8B5C8B96CE88E592E08B8B9C8BBE
:1007B00091CEB7FF85CFC70183CF828193814FEF61
:1007C000480DDF012D913D9112978217930738F460
:1007D00012962D933D93415016974F3F99F7A1E004
:1007E000A40FAA0FBB0BAE0DBF1D8D939D938394D9
:1007F000329681CF1695F701E10FF11DE10FF11D42
:10080000208031800091483910914939E0914A396E
:10081000F0914B39EBA3FCA30033110508F411C28E
:1008200060914639709147396115710509F409C223
:10083000389708F406C280E090E00E94C9096F8FE3
:1008400078A389A39AA320E030E040E251E40E941B
:10085000C5096B017C01B80180E090E00E94C909E4
:100860009B01AC01B601C7010E94C5096B017C0167
:1008700020E030E040E85FE30E941E0A87FDE1C10E
:100880009601A70160E074E284E799E40E94C5093B
:100890009B01AC016BED7FE685E798E40E94C509FA
:1008A0006B017C0128EA3CED45EC50E40E947D0A96
:1008B00018160CF4C6C18091443990914539A0E0D6
:1008C000B0E04897A109B1092C013D0177FE03C0B2
:1008D000412C512C3201C801A0E0B0E0A201B301CB
:1008E000415D5F4F6F4F7F4F4017510761057105A5
:1008F0002CF0C097A109B1092C013D01B601C70137
:100900000E94B2064B015C01B601C7010E944C096E
:100910006CAB7DAB8EAB9FAB9401A501B401C5015F
:100920000E94590968AF79AF8AAF9BAF40910238F6
:10093000509103384CAF5DAFC2018C5F974C8B8FE9
:100940009C8F1DA61EA61FA618AAE12CF12C8701BC
:100950006701AB8DBC8D6D91AB8FBC8F70E0ECAD42
:10096000FDAD6E1B7F0B872F880F880B982F0E9481
:10097000CB096DA37EA38FA398A728AD39AD4AAD4F
:100980005BADB701C8010E941A0A9B01AC016DA1C1
:100990007EA18FA198A50E9459092DA53EA54FA51E
:1009A00058A90E9458096DA379AB8AAB9BABFFEFA6
:1009B000CF1ADF0AEDA6FEA60FA718AB20E3C216DA
:1009C000D10409F032C19401A501B701C8010E9408
:1009D0001A0A9B01AC016DA179A98AA99BA90E9461
:1009E0005809BE2DAF2DF02FE12F7B018C012CA9D2
:1009F0003DA94EA95FA96B2F7A2F8F2F9E2F0E94A2
:100A00001A0A9701A8010E9453066B8F7C8F8D8F65
:100A10009E8F20E030E040EA53E46F8D78A189A1F9
:100A20009AA10E94C5096B017C01B201C3010E9419
:100A3000CB099B01AC01B601C7010E941A0A6B01E8
:100A40007C01609100387091013880E090E00E9454
:100A5000C9099B01AC01B601C7010E94590920E0F8
:100A600030E040E251E40E94C50920E030E44CE16E
:100A700057E40E941A0A2DEB37E346E855E30E943B
:100A80001A0A6B017C012BED3FE049EC50E46B8DC1
:100A90007C8D8D8D9E8D0E94C5099B01AC01B60198
:100AA000C7010E94580940E050E09A010E9459098C
:100AB0006B017C010E9425079B01AC01B601C701B7
:100AC0000E9458096B017C0120E030E041E655E4CA
:100AD0000E941A0A0E948C082B016F89788D898DDB
:100AE0009A8D0E94CB0920E030E44CE957E40E9443
:100AF000C5094B015C019B01AC01B601C7010E9415
:100B00001A0A7B018C01B10180E090E00E94C909C2
:100B10003B016C019701A8010E9458099401A501AD
:100B20000E94C5090E9428099B01AC01B401C501BE
:100B30000E941A0A9701A8010E9459097B018C01A1
:100B40009301A6010E9458099B01AC015F772F8B8E
:100B5000388F498F5A8F20E030E040E05FE3B401E6
:100B6000C5010E941A0A9B01AC016F89788D898D9D
:100B70009A8D0E947D0A18160CF45CC040E050E08B
:100B80009A01B701C8010E941E0A87FD56C020E0E5
:100B90003EEF4FE757E4B701C8010E947D0A1816DF
:100BA0002CF4E12C9EEFF92E0FE717E4B701C801F2
:100BB0000E948C088B018CE199E90E945900C801C0
:100BC0000E9466008FE199E90E945900C1010E94CC
:100BD000660087E299E90E94590030EF431631EF31
:100BE0005306A9F58CE299E90E94590080E199E940
:100BF0000E9459008B899C890E94A7008FE299E985
:100C00000E9459008BA59CA50E94660088E199E985
:100C10000E94590089E090E00E94660082E399E911
:100C20000E9459008BA19CA193CDEDA0F9A80AA91F
:100C30001BA98FCE73018601AACFE12CF12C87016D
:100C4000B5CF810180EF482E81EF582EB4CF57FEEB
:100C500006C08DE20E945200519441945108C20195
:100C60006AE070E00E94A50A182FCB010E9466007E
:100C70008EE20E94520080E3810F0E945200B6CFA4
:100C80000E94950760F080E891E009F49EEF0E94D1
:100C90009C0728F040E851E071F45EEF0CC00C9422
:100CA0006B070C942D08E92FE0780E94F30740F3BE
:100CB000092E052AB1F3261737074807590738F0D8
:100CC0000E2E07F8E02569F0E025E0640AC0EF6326
:100CD00007F8009407FADB01B9019D01DC01CA01A4
:100CE000AD01EF930E94CA060E94CE070E948306C0
:100CF0005F91552339F02BED3FE049E450FD49EC7D
:100D00000C9459090895DF93DD27B92FBF7740E888
:100D10005FE31616170648075B0718F4D92F0E94E1
:100D200034089F938F937F936F930E945409EEE250
:100D3000F8E10E946E070E94CE072F913F914F91DC
:100D40005F910E94CE08DD2351F09058A2EA2AED6F
:100D50003FE049EC5FE3D0785D270E947009DF91A6
:100D60000C94CE070E94A507E3950C94DF070E9420
:100D70009C0758F00E94950740F029F45F3F29F046
:100D80000C943C0751110C942E080C946B070E9494
:100D9000F30768F39923B1F3552391F3951B550B92
:100DA000BB27AA2762177307840738F09F5F5F4F3E
:100DB000220F331F441FAA1FA9F335D00E2E3AF07D
:100DC000E0E832D091505040E695001CCAF72BD095
:100DD000FE2F29D0660F771F881FBB1F26173707E6
:100DE0004807AB07B0E809F0BB0B802DBF01FF2718
:100DF00093585F4F3AF09E3F510578F00C943C07B2
:100E00000C942E085F3FE4F3983ED4F386957795D3
:100E10006795B795F7959F5FC9F7880F911D9695D0
:100E2000879597F90895E1E0660F771F881FBB1F2C
:100E3000621773078407BA0720F0621B730B840BD9
:100E4000BA0BEE1F88F7E09508950E94150890F000
:100E50009F3748F4911116F00C942E0860E070E072
:100E600080E89FEB089526F41B16611D711D811DFE
:100E70000C9442070C945D0797F99F6780E870E037
:100E800060E00895882371F4772321F09850872B30
:100E9000762F07C0662311F499270DC09051862B39
:100EA00070E060E02AF09A95660F771F881FDAF7E6
:100EB000880F9695879597F908959F3F31F0915047
:100EC00020F4879577956795B795880F911D96952E
:100ED000879597F908959FEF80EC0895DF93CF935E
:100EE0001F930F93FF92EF92DF927B018C01689426
:100EF00006C0DA2EEF010E94CE08FE01E894A5910B
:100F00002591359145915591A6F3EF010E94700905
:100F1000FE019701A801DA9469F7DF90EF90FF9046
:100F20000F911F91CF91DF91089500240A94161616
:100F3000170618060906089500240A9412161306C7
:100F40001406050608950C946B070E94FB07D8F35E
:100F5000E894E0E0BB279F57F0F02AED3FE049EC32
:100F600006C0EE0FBB0F661F771F881F28F0B23A2E
:100F700062077307840728F0B25A620B730B840B65
:100F8000E3959A9572F7803830F49A95BB0F661FF7
:100F9000771F881FD2F790480C945F07092E03949F
:100FA000000C11F4882352F0BB0F40F4BF2B11F456
:100FB00060FF04C06F5F7F4F8F4F9F4F0895EF9387
:100FC000E0FF07C0A2EA2AED3FE049EC5FEB0E9498
:100FD00070090E94CE070F90039401FC9058EBE536
:100FE000F8E10C94060A57FD9058440F551F59F02C
:100FF0005F3F71F04795880F97FB991F61F09F3F06
:1010000079F087950895121613061406551FF2CF2E
:101010004695F1DF08C0161617061806991FF1CF7E
:10102000869571056105089408950E94FB07A0F05C
:10103000BEE7B91788F4BB279F3860F41616B11DB8
:10104000672F782F8827985FF7CF869577956795D4
:10105000B11D93959639C8F30895E894BB27662788
:101060007727CB0197F908959B01AC0160E070E010
:1010700080E89FE30C94C50916F00C945D070C946E
:101080006B0768940C943C070E94FB07A8F3992314
:10109000C1F3AEF3DF93CF931F930F93FF92C92F4A
:1010A000DD2788232AF02197660F771F881FDAF73C
:1010B00020E030E040E85FEB9FE3883920F0803E9D
:1010C00038F021968F770E945909E9E7F8E104C0CA
:1010D0000E945909E6EAF8E10E946E078B01BE0101
:1010E000EC01FB2E6F5771097595771F880B990BD3
:1010F0000E94CB0928E132E741E35FE30E94CE087A
:10110000AF2D9801AE01FF900F911F91CF91DF910C
:101110000E9470090C94CE070E94FB0758F19E575D
:1011200060F19851A0F0E9F0983020F5092E992748
:10113000660F771F881F991F0A94D1F712C0062ED9
:10114000672F782F8827985F11F4000C07C0993F0C
:10115000B4F38695779567959395D9F7611D711DC1
:10116000811D3EF490958095709561957F4F8F4FCE
:101170009F4F089568940C942E080C942D080E949B
:10118000950738F00E949C0720F0952311F00C94ED
:101190003C070C946B0711240C942E080E94F30753
:1011A00070F3959FC1F3950F50E0551F629FF001BA
:1011B000729FBB27F00DB11D639FAA27F00DB11DD3
:1011C000AA1F649F6627B00DA11D661F829F22275C
:1011D000B00DA11D621F739FB00DA11D621F839FE3
:1011E000A00D611D221F749F3327A00D611D231FB9
:1011F000849F600D211D822F762F6A2F11249F5707
:1012000050409AF0F1F088234AF0EE0FFF1FBB1F09
:10121000661F771F881F91505040A9F79E3F5105C8
:1012200080F00C943C070C942E085F3FE4F3983E4A
:10123000D4F3869577956795B795F795E7959F5F72
:10124000C1F7FE2B880F911D9695879597F9089504
:101250000E94FB07E8F09E37E8F09639B8F49E3814
:1012600048F4672F782F8827985FF9CF8695779570
:10127000679593959539D0F3B62FB1706B0F711DAB
:10128000811D20F487957795679593950C94420777
:101290000C945D070C942E089F930E94A5070F9055
:1012A00007FCEE5F0C94DF079B01AC010C941A0A5B
:1012B0005058BB27AA270E9470090C94CE070E94A1
:1012C000950738F00E949C0720F039F49F3F19F4ED
:1012D00026F40C946B070EF4E095E7FB0C943C07A6
:1012E000E92F0E94F30758F3BA17620773078407C0
:1012F000950720F079F4A6F50C942D080EF4E095EE
:101300000B2EBA2FA02D0B01B90190010C01CA01BF
:10131000A0011124FF27591B99F0593F50F4503E6A
:1013200068F11A16F040A22F232F342F4427585F5C
:10133000F3CF469537952795A795F0405395C9F774
:101340007EF41F16BA0B620B730B840BBAF091502C
:10135000A1F0FF0FBB1F661F771F881FC2F70EC0CB
:10136000BA0F621F731F841F48F48795779567959E
:10137000B795F7959E3F08F0B0CF9395880F08F08A
:101380009927EE0F9795879508950E94C7060C94AC
:10139000CE07E89409C097FB3EF490958095709530
:1013A00061957F4F8F4F9F4F9923A9F0F92F96E9B1
:1013B000BB279395F695879577956795B795F11126
:1013C000F8CFFAF4BB0F11F460FF1BC06F5F7F4FC3
:1013D0008F4F9F4F16C0882311F096E911C07723D5
:1013E00021F09EE8872F762F05C0662371F096E8DE
:1013F000862F70E060E02AF09A95660F771F881FAD
:10140000DAF7880F9695879597F908959F938F93AC
:101410007F936F93FF93EF939B01AC010E941A0A95
:10142000EF91FF910E946E072F913F914F915F9135
:101430000C941A0A0E94CE080C94CE070E94590AF6
:1014400008F481E008950E942A0A6894B1110C946E
:101450002E0808950E94FB0788F09F5798F0B92F37
:101460009927B751B0F0E1F0660F771F881F991FD9
:101470001AF0BA95C9F714C0B13091F00E942D0846
:10148000B1E008950C942D08672F782F8827B85F56
:1014900039F0B93FCCF3869577956795B395D9F731
:1014A0003EF490958095709561957F4F8F4F9F4F3B
:1014B0000895990F0008550FAA0BE0E8FEEF1616E5
:1014C0001706E807F907C0F012161306E407F50738
:1014D00098F0621B730B840B950B39F40A2661F0AC
:1014E000232B242B252B21F408950A2609F4A1404F
:1014F000A6958FEF811D811D08950E94590A08F459
:101500008FEF0895A29FB001B39FC001A39F700DFC
:10151000811D1124911DB29F700D811D1124911DFB
:101520000895AA1BBB1B51E107C0AA1FBB1FA6172A
:10153000B70710F0A61BB70B881F991F5A95A9F77C
:1015400080959095BC01CD01089597FB072E16F468
:10155000009407D077FD09D00E94910A07FC05D0BE
:101560003EF4909581959F4F0895709561957F4FBA
:101570000895A1E21A2EAA1BBB1BFD010DC0AA1FD4
:10158000BB1FEE1FFF1FA217B307E407F50720F0EC
:10159000A21BB30BE40BF50B661F771F881F991F67
:1015A0001A9469F760957095809590959B01AC01B0
:1015B000BD01CF010895052E97FB1EF400940E94F3
:1015C000F20A57FD07D00E94B90A07FC03D04EF477
:1015D0000C94F20A50954095309521953F4F4F4F0E
:1015E0005F4F089590958095709561957F4F8F4FCF
:1015F0009F4F08950E94820AB7FF0895821B930BA4
:10160000089597FB57FF0C94110B9F938F930E94A3
:10161000110B6E1B7F0BAF91BF918A0B9B0B089533
:10162000E894DF93CF93FC01DB010E94820A7F9351
:101630006F93E9019A01AC01BF93AF933F932F934E
:10164000DF010E94820A26F46C1B7D0B820B930B38
:101650009E01EB01FC010E940C0CAF91BF912F91F8
:101660003F910E940C0CBE01CF01F9012F913F91D7
:10167000CF91DF910895689401C0E894F92FF12B80
:1016800012F00C946F0BA0E0B0E0E9E4FBE00C94E6
:10169000E10B092E059422F40E94CB0B112392F446
:1016A000F0E80F26FFEFE094F09400951095B094C9
:1016B000C094D094A194BF0ACF0ADF0AEF0AFF0AB0
:1016C0000F0B1F0B0E947A0B07FC0E94CB0BCDB7B0
:1016D000DEB7ECE00C94FA0B689401C0E8948F92AA
:1016E0009F92CF93DF930E947A0BDF91CF919F90CF
:1016F0008F90089588249924F401E401B0E49F9325
:10170000AA279A158B049C04ED05FE05CF05D0078A
:10171000A10798F4AD2FDC2FCF2FFE2FE92D982CA9
:10172000892E982F872F762F652F542F432F322FF6
:101730002227B85031F7BF9127C01B2EBF91BB277E
:10174000220F331F441F551F661F771F881F991FC5
:10175000881C991CEE1FFF1FCC1FDD1FAA1FBB1F7B
:101760008A149B04EC05FD05CE05DF05A007B10733
:1017700048F08A189B08EC09FD09CE09DF09A00B87
:10178000B10B21601A94E1F62EF49401AF01BE0171
:10179000CD01000C089560957095809590953095D9
:1017A0004095509521953F4F4F4F5F4F6F4F7F4F63
:1017B0008F4F9F4F08952F923F924F925F926F925B
:1017C0007F928F929F92AF92BF92CF92DF92EF92D1
:1017D000FF920F931F93CF93DF93CDB7DEB7CA1B52
:1017E000DB0BCDBFDEBF09942A88398848885F8427
:1017F0006E847D848C849B84AA84B984C884DF80B1
:10180000EE80FD800C811B81AA81B981CE0FD11D94
:10181000CDBFDEBFED0108950E94820A460F571F1B
:10182000C81FD91F08F431960895F894FFCF084ACD
:10183000D73B3BCE016E84BCBFFDC12F3D6C7431E4
:101840009ABD56833DDA3D00C77F11BED9E4BB4C3B
:101850003E916BAAAABE000000803F05A84CCDB205
:10186000D44EB93836A9020C50B9918688083CA6E6
:10187000AAAA2ABE000000803F08000000BE9224F1
:1018800049123EABAAAA2ABECDCCCC4C3E000000E9
:1018900080BEABAAAAAA3E00000000BF00000080E4
:1018A0003F0000000000084178D3BB4387D1133DBF
:1018B000190E3CC3BD4282AD2B3E68EC8276BED988
:1018C0008FE1A93E4C80EFFFBE01C4FF7F3F0000C7
:0418D0000000000014
:1018D4003D3D3D205745544920756C747261736FCA
:1018E4006E6963206D657465722028457461703279
:1018F400292052535446523D307800203D3D3D0D41
:101904000A0023004E4F204543484F0020543D0019
:10191400432028002F002900443D006D6D202844F9
:10192400633D002070683D002D2D00432000207091
:101934006B3D003031323334353637383941424328
:0419440044454600D0
:00000001FF
