:100000000C943E000C9448000C9448000C9448005A
:100010000C9448000C9448000C9448000C94140173
:100020000C9448000C9448000C9448000C94480030
:100030000C9448000C9448000C9448000C94480020
:100040000C9448000C9448000C9448000C94480010
:100050000C9448000C9448000C9448000C94480000
:100060000C9448000C9448000C9448000C944800F0
:100070000C9448000C9448000C94480011241FBEB6
:10008000CFEFCDBFDFE3DEBF0E941A010C94E4077F
:100090000C9400009091040895FFFCCF8093020817
:1000A0000895CF93DF93EC018881811103C0DF9124
:1000B000CF91089521960E944A00F6CFFF920F93A8
:1000C0001F93CF93DF9300D000D000D0CDB7DEB721
:1000D0009C01892B59F480E32696CDBFDEBFDF91CA
:1000E000CF911F910F91FF900C944A00FE01319621
:1000F00040E08F01C9016AE070E00E949303F42E92
:10010000805D80832A30310538F041E04F0D319613
:100110009B0184E0F812EECFF801EF0DF11D808114
:100120000E944A00FA948FEFF812F6CF2696CDBFC0
:10013000DEBFDF91CF911F910F91FF9008958F92B5
:100140009F92AF92BF92CF92DF92EF92FF920F9366
:100150001F93DC0191E09093260410924A0A1092BA
:100160004B0A9093460A61509093250428E22A9501
:10017000F1F79093260488E28A95F1F76111F3CFA5
:1001800090932604EAE6F3E03197F1F700C000000F
:100190009093460A80914A0A90914B0A80349C4978
:1001A00068F08FEF9FEF1F910F91FF90EF90DF901E
:1001B000CF90BF90AF909F908F9008958091460A06
:1001C00080FFE8CF80904C0A90904D0A81E08093A8
:1001D000460AC401885B9B4089389049D8F62EE5D1
:1001E00032E00E94DA032AE030E040E050E00E9472
:1001F000BB0389019A010C5D114F2A4F3F4FA12C7F
:10020000B12CB801C9019401A5010E94E103EDE2FE
:10021000BE2EF1E3CF2EF1E0DF2EE12CF12C870191
:100220000E941D04C901BFCF8F9381E080935301C9
:100230008F911895CDB7DEB76A97CDBFDEBF88ED39
:1002400021E030E084BF2093610088E080930204C5
:100250008093130420E1209301042093060440E2DC
:100260004093020484E08093150430E43093010449
:100270003093050491E09093210490932604809399
:1002800021048093250420932204809334048093D6
:1002900010048093110480931204809317048093B8
:1002A0003104809333048093350480935004809309
:1002B000510480935204809353046BE571E0609382
:1002C00008087093090823E0209307083093060874
:1002D00082E5809302064093030610920506109271
:1002E00000068091A200887F82608093A2008091A6
:1002F000A10088608093A1008FEF8093A90690935E
:10030000A8068BE180938A062093880683E1809378
:1003100082012093920182E08093410A9093440AE3
:100320001092450A10924A0A10924B0A9093460A7C
:100330009093400A8091410180FDFCCF10924701CB
:100340008091510180FDFCCF81E08093520189E5CD
:100350008093500183E090E1909305042FED33E901
:1003600044E0215030404040E1F700C0000090934D
:1003700006042FED33E944E0215030404040E1F7DE
:1003800000C00000815041F71091400010934000E0
:1003900086E290E90E945100E12FE295EF70F0E0D3
:1003A000E558FF4680810E944A001F70E12FF0E06F
:1003B000E558FF4680810E944A0081E590E90E944D
:1003C0005100C12CD12C90E4692E95E0792EEE24B9
:1003D000E39430E1832E80915000897F8260809386
:1003E00050008091500081608093500078948895EF
:1003F000809150008E7F809350008091080483FD8F
:10040000EACF8FE493EC0197F1F700C000008091F0
:10041000080483FBFF24F3F883FDDDCF9FEFC91AA7
:10042000D90A6092060480910006816080930006DC
:1004300087E893E10197F1F700C00000709206068B
:10044000E0920B06E092080680910B0680FFFCCF3D
:100450008091100690911106809205047092060614
:10046000E0920B06E092080680910B0680FB99242F
:1004700090F880FFF9CF0091100610911106011538
:10048000110509F412C10F3F93E0190708F010C1DC
:100490006FEF73E0601B710B80E090E00E944C06F0
:1004A00020E030E44CE156E40E94BC076B8B7C8B6F
:1004B0008D8B9E8BB80180E090E00E944C069B01E2
:1004C000AC016B897C898D899E890E940F0720E091
:1004D00030E44CE156E40E940F070E942E0520E014
:1004E00030EE46E755E40E940F072FE03FEC4BE566
:1004F0005BE30E94E0059B01AC0160E070E080E8F6
:100500009FE30E940F0723E333E948E853E40E9486
:10051000DF056B8B7C8B8D8B9E8B20E030E040E287
:1005200051E40E94BC076F8B788F898F9A8F40E0CF
:1005300050E09A016B897C898D899E890E94B7075A
:1005400040E030E02FE387FD2FEB822F20E0582F93
:100550006F89788D898D9A8D0E94E0050E948107B0
:10056000693522E07207810591050CF494C068E5B5
:1005700072E08B0168E0C8010E949F008F3F9807DE
:1005800009F499C08639910508F498C08A3F91050D
:1005900008F497C088E08B8B89E0B82E6B89C8017E
:1005A0000E949F008F3F980749F0FE013196EF0DA2
:1005B000F11DEF0DF11D80839183F3948BE792E998
:1005C0000197F1F700C00000BA9441F78092060449
:1005D000809100068E7F8093000660920504FE01E4
:1005E00031965F019F1408F46FC088E590E90E947E
:1005F0005100C6010E945E0080E20E944A0092E023
:10060000F91608F07EC08AE590E90E94510088E65C
:1006100090E90E94510017FF06C08DE20E944A0037
:10062000119501951109C8016AE070E00E94A703C5
:10063000182FCB010E945E008EE20E944A0080E3E8
:10064000810F0E944A008CE690E90E9451002B899C
:10065000822F90E00E945E0082E790E90E945100A4
:100660008F2D90E00E945E0085E790E90E94510086
:1006700089E090E00E945E0087E790E90E945100C7
:100680008091080483FDA7CE87EA91E60197F1F7F0
:1006900000C00000F5CF68333FEF7307830793076F
:1006A0000CF067CF68E37FEF64CF08E31FEF62CF02
:1006B00008E512E05FCF98E09B8B6ECF24E02B8B98
:1006C0006BCF36E03B8B68CF828193814FEF490D32
:1006D000DF012D913D9112978217930738F41296FE
:1006E0002D933D93415016974F3F99F7A1E0A40FEA
:1006F000AA0FBB0BAA0DBB1D8D939D9393943296AD
:1007000071CF82E690E90E9451008F2D8695F50108
:10071000E80FF11DE80FF11D808191810E945E00BC
:1007200085E690E972CFAA1BBB1B51E107C0AA1F47
:10073000BB1FA617B70710F0A61BB70B881F991F82
:100740005A95A9F780959095BC01CD01089597FB26
:10075000072E16F4009407D077FD09D00E9493036A
:1007600007FC05D03EF4909581959F4F08957095B4
:1007700061957F4F0895052E97FB1EF400940E940B
:10078000D20357FD07D00E94FB0407FC03D04EF4B0
:100790000C94D20350954095309521953F4F4F4F83
:1007A0005F4F089590958095709561957F4F8F4F1D
:1007B0009F4F08950E94EC04B7FF0895821B930B8E
:1007C000089597FB57FF0C94F1039F938F930E941A
:1007D000F1036E1B7F0BAF91BF918A0B9B0B0895AA
:1007E000E894DF93CF93FC01DB010E94EC047F933C
:1007F0006F93E9019A01AC01BF93AF933F932F939D
:10080000DF010E94EC0426F46C1B7D0B820B930B22
:100810009E01EB01FC010E941D05AF91BF912F913C
:100820003F910E941D05BE01CF01F9012F913F911B
:10083000CF91DF910895689401C0E894F92FF12BCE
:1008400012F00C944F04A0E0B0E0E9E2F4E00C9464
:10085000C104092E059422F40E94AB04112392F4E2
:10086000F0E80F26FFEFE094F09400951095B09417
:10087000C094D094A194BF0ACF0ADF0AEF0AFF0AFE
:100880000F0B1F0B0E945A0407FC0E94AB04CDB74C
:10089000DEB7ECE00C94DA04689401C0E8948F921F
:1008A0009F92CF93DF930E945A04DF91CF919F9044
:1008B0008F90089588249924F401E401B0E49F9373
:1008C000AA279A158B049C04ED05FE05CF05D007D9
:1008D000A10798F4AD2FDC2FCF2FFE2FE92D982CF8
:1008E000892E982F872F762F652F542F432F322F45
:1008F0002227B85031F7BF9127C01B2EBF91BB27CD
:10090000220F331F441F551F661F771F881F991F13
:10091000881C991CEE1FFF1FCC1FDD1FAA1FBB1FC9
:100920008A149B04EC05FD05CE05DF05A007B10781
:1009300048F08A189B08EC09FD09CE09DF09A00BD5
:10094000B10B21601A94E1F62EF49401AF01BE01BF
:10095000CD01000C08956095709580959095309527
:100960004095509521953F4F4F4F5F4F6F4F7F4FB1
:100970008F4F9F4F08952F923F924F925F926F92A9
:100980007F928F929F92AF92BF92CF92DF92EF921F
:10099000FF920F931F93CF93DF93CDB7DEB7CA1BA0
:1009A000DB0BCDBFDEBF09942A88398848885F8475
:1009B0006E847D848C849B84AA84B984C884DF80FF
:1009C000EE80FD800C811B81AA81B981CE0FD11DE3
:1009D000CDBFDEBFED010895A29FB001B39FC0015E
:1009E000A39F700D811D1124911DB29F700D811D5B
:1009F0001124911D0895A1E21A2EAA1BBB1BFD0113
:100A00000DC0AA1FBB1FEE1FFF1FA217B307E407ED
:100A1000F50720F0A21BB30BE40BF50B661F771F45
:100A2000881F991F1A9469F7609570958095909525
:100A30009B01AC01BD01CF0108950E94EC04460F5B
:100A4000571FC81FD91F08F43196089516F00C944B
:100A50008F060C949D0668940C9489060E94EE06FD
:100A6000A8F39923C1F3AEF3DF93CF931F930F93B2
:100A7000FF92C92FDD2788232AF02197660F771F61
:100A8000881FDAF720E030E040E85FEB9FE3883929
:100A900020F0803E38F021968F770E94E005ECEC44
:100AA000FFE004C00E94E005E9EFFFE00E94A0061D
:100AB0008B01BE01EC01FB2E6F5771097595771FF5
:100AC000880B990B0E944E0628E132E741E35FE371
:100AD0000E948505AF2D9801AE01FF900F911F91E7
:100AE000CF91DF910E94F7050C94D5060E94C706AE
:100AF00038F00E94CE0620F0952311F00C94890660
:100B00000C949D0611240C9409070E94E60670F3CC
:100B1000959FC1F3950F50E0551F629FF001729FA2
:100B2000BB27F00DB11D639FAA27F00DB11DAA1FB1
:100B3000649F6627B00DA11D661F829F2227B00DFE
:100B4000A11D621F739FB00DA11D621F839FA00D89
:100B5000611D221F749F3327A00D611D231F849FD9
:100B6000600D211D822F762F6A2F11249F57504030
:100B70009AF0F1F088234AF0EE0FFF1FBB1F661FAB
:100B8000771F881F91505040A9F79E3F510580F074
:100B90000C9489060C9409075F3FE4F3983ED4F364
:100BA000869577956795B795F795E7959F5FC1F718
:100BB000FE2B880F911D9695879597F908955058AB
:100BC000BB27AA270E94F7050C94D5060E94C706EA
:100BD00038F00E94CE0620F039F49F3F19F426F435
:100BE0000C949D060EF4E095E7FB0C948906E92F22
:100BF0000E94E60658F3BA17620773078407950741
:100C000020F079F4A6F50C9408070EF4E0950B2E6D
:100C1000BA2FA02D0B01B90190010C01CA01A0014E
:100C20001124FF27591B99F0593F50F4503E68F1A9
:100C30001A16F040A22F232F342F4427585FF3CFEA
:100C4000469537952795A795F0405395C9F77EF4BB
:100C50001F16BA0B620B730B840BBAF09150A1F004
:100C6000FF0FBB1F661F771F881FC2F70EC0BA0F8A
:100C7000621F731F841F48F4879577956795B79512
:100C8000F7959E3F08F0B0CF9395880F08F099270D
:100C9000EE0F979587950895E89409C097FB3EF469
:100CA00090958095709561957F4F8F4F9F4F9923B9
:100CB000A9F0F92F96E9BB279395F6958795779537
:100CC0006795B795F111F8CFFAF4BB0F11F460FFF7
:100CD0001BC06F5F7F4F8F4F9F4F16C0882311F04F
:100CE00096E911C0772321F09EE8872F762F05C063
:100CF000662371F096E8862F70E060E02AF09A95FE
:100D0000660F771F881FDAF7880F9695879597F9F2
:100D1000089597F99F6780E870E060E008959F3F2D
:100D200031F0915020F4879577956795B795880FA6
:100D3000911D9695879597F908959FEF80EC0895FA
:100D4000DF93CF931F930F93FF92EF92DF927B017C
:100D50008C01689406C0DA2EEF010E948505FE0121
:100D6000E894A5912591359145915591A6F3EF0110
:100D70000E94F705FE019701A801DA9469F7DF9058
:100D8000EF90FF900F911F91CF91DF910895002474
:100D90000A941616170618060906089500240A94E0
:100DA00012161306140605060895092E0394000C66
:100DB00011F4882352F0BB0F40F4BF2B11F460FFF5
:100DC00004C06F5F7F4F8F4F9F4F089557FD90581E
:100DD000440F551F59F05F3F71F04795880F97FBFF
:100DE000991F61F09F3F79F08795089512161306B9
:100DF0001406551FF2CF4695F1DF08C016161706E8
:100E00001806991FF1CF869571056105089408951C
:100E1000E894BB2766277727CB0197F908950E94AE
:100E200023070C94D5060E94CE0658F00E94C706F0
:100E300040F029F45F3F29F00C94890651110C947D
:100E400009070C949D060E94E60668F39923B1F306
:100E5000552391F3951B550BBB27AA2762177307E0
:100E6000840738F09F5F5F4F220F331F441FAA1F74
:100E7000A9F335D00E2E3AF0E0E832D09150504030
:100E8000E695001CCAF72BD0FE2F29D0660F771FDE
:100E9000881FBB1F261737074807AB07B0E809F0C4
:100EA000BB0B802DBF01FF2793585F4F3AF09E3F49
:100EB000510578F00C9489060C9409075F3FE4F320
:100EC000983ED4F3869577956795B795F7959F5F8C
:100ED000C9F7880F911D9695879597F90895E1E0D8
:100EE000660F771F881FBB1F621773078407BA0737
:100EF00020F0621B730B840BBA0BEE1F88F7E09592
:100F000008950E9488076894B1110C940907089508
:100F10000E94EE0688F09F5798F0B92F9927B75195
:100F2000B0F0E1F0660F771F881F991F1AF0BA958D
:100F3000C9F714C0B13091F00E940807B1E00895DC
:100F40000C940807672F782F8827B85F39F0B93FCE
:100F5000CCF3869577956795B395D9F73EF4909540
:100F60008095709561957F4F8F4F9F4F08950E9498
:100F7000C00708F48FEF08950E9485050C94D506EC
:100F8000990F0008550FAA0BE0E8FEEF161617069A
:100F9000E807F907C0F012161306E407F50798F002
:100FA000621B730B840B950B39F40A2661F0232B1B
:100FB000242B252B21F408950A2609F4A140A69597
:100FC0008FEF811D811D0895F894FFCF0800000068
:100FD000BE922449123EABAAAA2ABECDCCCC4C3E2E
:100FE00000000080BEABAAAAAA3E00000000BF001D
:100FF0000000803F0000000000084178D3BB438719
:10100000D1133D190E3CC3BD4282AD2B3E68EC822C
:1010100076BED98FE1A93E4C80EFFFBE01C4FF7FB1
:061020003F00000000008B
:101026003D3D3D205745544920756C747261736F80
:101036006E6963206D65746572202845746170322F
:10104600292052535446523D307800203D3D3D0DF7
:101056000A0023004E4F204543484F00443D006D93
:101066006D0020543D004320284E3D002C20002FCB
:1010760000290D0A003031323334353637383941DC
:0610860042434445460010
:00000001FF
