:100000000C943E000C9450000C9450000C94500042
:100010000C9450000C9450000C9450000C94AC03C1
:100020000C9450000C9450000C9450000C94500010
:100030000C9450000C9450000C9450000C94500000
:100040000C9450000C9450000C9450000C945000F0
:100050000C9450000C9450000C9450000C945000E0
:100060000C9450000C9450000C9450000C945000D0
:100070000C9450000C9450000C94500011241FBE9E
:10008000CFEFCDBFDFE3DEBF29E3A0E0B8E301C0DF
:100090001D92A335B207E1F70E94B2030C94F10E52
:1000A0000C9400009091040895FFFCCF8093020807
:1000B0000895CF93DF93EC018881811103C0DF9114
:1000C000CF91089521960E945200F6CFFF920F9390
:1000D0001F93CF93DF9300D000D000D0CDB7DEB711
:1000E0009C01892B59F480E32696CDBFDEBFDF91BA
:1000F000CF911F910F91FF900C945200FE01319609
:1001000040E08F01C9016AE070E00E94130DF42EF7
:10011000805D80832A30310538F041E04F0D319603
:100120009B0184E0F812EECFF801EF0DF11D808104
:100130000E945200FA948FEFF812F6CF2696CDBFA8
:10014000DEBFDF91CF911F910F91FF900895CF9364
:10015000DF93EC0197FF06C08DE20E945200D1951B
:10016000C195D109CE016AE070E00E94270DC82F29
:10017000CB010E9466008EE20E94520080E38C0F49
:10018000DF91CF910C9452008093060681E080931A
:100190000B068093080680910B0680FFFCCF8091B0
:1001A00010069091110608952F923F924F925F9200
:1001B0006F927F928F929F92AF92BF92CF92DF9277
:1001C000EF92FF920F931F93CF93DF93CDB7DEB7DC
:1001D000A597CDBFDEBF898381E58093020610928B
:1001E00003068091000684608093000689E00E94E7
:1001F000C400809351399093523981E08093260452
:1002000010924A0A10924B0A298121502983809327
:10021000250449E24A95F1F700C08093260459E28B
:100220005A95F1F700C02111EFCF809326048DEE8F
:1002300092E00197F1F700C0000089E08093060684
:10024000A0904A0AB0904B0A21E539E3E1E1F8E3D6
:1002500081E080930B068093080690910B0690FF37
:10026000FCCF409110065091110641932E173F0785
:1002700081F780904A0A90904B0AA0920F38B09272
:1002800010388A189B0880920D3890920E38109280
:100290000C382090513930905239E1E1F8E380E098
:1002A00090E07C019701619170E0AB014219530924
:1002B0001AF4A101461B570B2417350714F49A01B1
:1002C0007C010196803441E0940769F7E0920A3896
:1002D000F0920B38209308383093093826303105D6
:1002E00008F42BC2A8E2B0E00E94040D24E630E03E
:1002F00040E050E00E943B0D2530310514F425E02C
:1003000030E0E1E1F8E300E010E0C8016C01808139
:1003100090E0AC01421953094D835E8357FF05C03D
:10032000A101481B590B4D835E838D819E814D81B8
:100330005E81421753070CF4F9C10115110509F448
:10034000F0C1C416D5060CF0ECC1B9016C197D09D9
:10035000872F880F880B982F0E94460C69837A8319
:100360008B839C836D817E816C197D09872F880F1B
:10037000880B982F0E94460C9B01AC0169817A8101
:100380008B819C810E94400C6B018D839983B80105
:1003900061507109872F880F880B982F0E94460C97
:1003A00096014D8159810E94D40B8B0189879D83D1
:1003B000B40180E090E00E94440C69837A838B83CF
:1003C0009C8320E030E040EA53E40E94400C698BBB
:1003D0007A8B8B8B9C8B40E050E09A01B801898529
:1003E0009D810E94A00C87FF04C000E010E01986E8
:1003F0001D8229893A894B895C89B80189859D814B
:100400000E949C0C20E030E040E05FE30E94D40BAF
:100410000E94AC0C850120E030E0DC01CB018A0DAC
:100420009B1DA11DB11D2C013D0158EB451A5BE040
:10043000550A61087108A8A219A31AA21BA2E9E82B
:100440004E16E0E95E066104710408F076C15C01B5
:10045000892809F44FC140E251E469817A818B8196
:100460009C810E94400C20E030E040EA53E40E946E
:10047000400C69837A838B839C8320E030E040E8E2
:100480005FE30E94A00C87FD35C12BED3FE645E7F9
:1004900058E469817A818B819C810E949C0C2DEBB0
:1004A00037E346E855E30E949C0C69837A838B838B
:1004B0009C8328EA3CED45EC50E40E94FF0C1816A2
:1004C0000CF418C12701612C712CF8E14F1A510866
:1004D0006108710821E1421621E0520661047104AD
:1004E0000CF42EC180E1482E81E0582E612C712C35
:1004F00069817A818B819C810E94E7086D877E8764
:100500008F87988B69817A818B819C810E94810B76
:10051000688F798F8A8F9B8F2D853E854F8558896F
:10052000B901CA010E94D40B6C8F7D8F8E8F9F8F73
:10053000A2014F5E574C4D8B5E8B00E010E01DA278
:100540001CA2480119821D827401ED89FE89619106
:10055000ED8BFE8B70E062197309872F880F880B73
:10056000982F0E94460C69877A878B879C87940115
:1005700049815D816C8D7D8D8E8D9F8D0E949C0C3F
:100580009B01AC0169857A858B859C850E94D40B83
:1005900098014DA15CA10E94D30B6B0189879F8BB1
:1005A000FFEFEF1AFF0A840129812DA34D814CA38F
:1005B00050E3E516F10409F0C9C02C8F4D8B94016E
:1005C0004C8D5D896D857E858F8598890E949C0CF8
:1005D0009B01AC01B60189859F890E94D30B6B01F9
:1005E0007C0194014C8D5D89688D798D8A8D9B8D00
:1005F0000E949C0C9601A7010E94880869837A8357
:100600008B839C83B201C3010E94460C29893A89DD
:100610004B895C890E949C0C6D837E838F839887B5
:1006200068A179A18AA19BA10E94440C9B01AC0105
:100630006D817E818F8198850E94D40B20E030E00F
:1006400040E251E40E94400C20E030E44CE157E4E9
:100650000E949C0C2DEB37E346E855E30E949C0C6E
:100660006D837E838F8398872BED3FE049EC50E4C8
:1006700069817A818B819C810E94400C9B01AC0135
:100680006D817E818F8198850E94D30B40E050E080
:100690009A010E94D40B6B017C010E945A099B01B4
:1006A000AC01B601C7010E94D30B2BED3FE049EC32
:1006B00050E40E949C0C69837A838B839C830E9404
:1006C000E708609304387093053880930638909358
:1006D000073869817A818B819C810E94810B6093AC
:1006E000003870930138809302389093033881E08A
:1006F00080930C38C501A596CDBFDEBFDF91CF91A9
:100700001F910F91FF90EF90DF90CF90BF90AF902F
:100710009F908F907F906F905F904F903F902F9021
:100720000895C12CD12C1D82198231CE31960F5FD4
:100730001F4FE016F10608F0E9CDA12CB12CDACF5D
:1007400077FED6CE612C712C2301D2CE460159857D
:1007500059838F898D83F9CE8F9381E080935301E4
:100760008F911895CDB7DEB7E597CDBFDEBF88ED89
:1007700021E030E084BF2093610088E08093020490
:100780008093130420E1209301042093060440E2A7
:100790004093020484E08093150430E43093010414
:1007A0003093050491E09093210490932604809364
:1007B00021048093250420932204809334048093A1
:1007C0001004809311048093120480931704809383
:1007D00031048093330480933504809350048093D4
:1007E000510480935204809353046BE571E060934D
:1007F00008087093090823E020930708309306083F
:1008000082E580930206409303061092050610923B
:1008100000068091A200887F82608093A200809170
:10082000A10088608093A1008FEF8093A906909328
:10083000A8068BE180938A062093880683E1809343
:1008400082012093920182E08093410A9093440AAE
:100850001092450A10924A0A10924B0A9093460A47
:100860009093400A8091410180FDFCCF1092470196
:100870008091510180FDFCCF81E08093520189E598
:100880008093500183E090E1909305042FED33E9CC
:1008900044E0215030404040E1F700C00000909318
:1008A0000604AFEDB3E9E4E0A150B040E040E1F769
:1008B00000C00000815041F71091400010934000AB
:1008C0008CE89EE90E945900E12FE295EF70F0E07C
:1008D000EC50F14680810E9452001F70E12FF0E041
:1008E000EC50F14680810E94520087EB9EE90E9405
:1008F00059008091040885FFFCCF86E791E00197BD
:10090000F1F700C00000212C312C80915000897F2C
:1009100082608093500080915000816080935000ED
:1009200078948895809150008E7F809350008091BC
:10093000080483FDEACFAFE4B3EC1197F1F700C0F0
:1009400000008091080483FDE0CFBFEF2B1A3B0A23
:1009500080E4809306048091000681608093000605
:10096000E3EDF0E33197F1F700C0000085E00E946D
:10097000C40080E18093050482E58093020680E252
:1009800080930306809100068B7F80930006B8E079
:100990009B2E612C712C230185E00E94C400480E1F
:1009A000591E611C711C9A94B9F7A3E07694679460
:1009B00057944794AA95D1F7C201892B09F45CC1D9
:1009C000FFEF4F16F3E05F0608F05BC16FEF73E0D7
:1009D0006419750980E090E00E94440C20E030E446
:1009E0004CE156E40E949C0C6B017C01B20180E05A
:1009F00090E00E94440C9B01AC01B601C7010E942B
:100A0000400C20E030E44CE156E40E94400C0E948F
:100A1000790A20E030EE46E755E40E94400C2FE0D2
:100A20003FEC4BE55BE30E94D40B9B01AC0160E023
:100A300070E080E89FE30E94400C23E333E948E83C
:100A400053E40E94D30B6B017C0120E030E040E2D4
:100A500051E40E949C0C6DA37EA38FA398A740E055
:100A600050E09A01B601C7010E94FF0C40E030E05F
:100A70002FE387FD2FEB822F20E0582F6DA17EA161
:100A80008FA198A50E94D40B0E94A50C693522E085
:100A90007207810591050CF4E5C068E572E069A76D
:100AA0007AA72EE532E0A9A5BAA50E947C0D2AE01E
:100AB00030E040E050E00E945D0DC901DA018C5D3C
:100AC000914FAA4FBF4F8DA39EA3AFA3B8A78AE0B3
:100AD0000E94D400009709F4D9C07C0100E010E026
:100AE0006DA17EA18FA198A59701A8010E94E60D96
:100AF000A12CEDE2BE2EF1E3CF2EF1E0DF2E780146
:100B00000E94220ED9012DED33E00E947C0DA70139
:100B100028EE0E945D0DC901DA0188549109A109EE
:100B2000B10922F08931914008F0B0C01AE0812C5F
:100B3000F9E0FBAB1BA61CA61DA61EA61FA618AAA5
:100B400019AA1AAA812F0E94D400009791F1FE01E0
:100B50003196E90DF11DE90DF11D828B938B80918A
:100B60000C38811529F120910438309105384091D5
:100B70000638509107386FA578A989A99AA90E94CB
:100B8000D40B6FA778AB89AB9AAB2091003830912A
:100B9000013840910238509103386BA57CA58DA592
:100BA0009EA50E94D40B6BA77CA78DA79EA78394BC
:100BB00093948BE792E90197F1F700C000009BA99D
:100BC00091509BAB9111BECF80E180930604809140
:100BD00000068E7F8093000680E4809305048EEBF0
:100BE0009EE90E945900C1010E94660080E20E94B5
:100BF00052009CAA1DAAB2E09B1608F049C080ECE6
:100C00009EE90E94590089A59AA50E94A7008BEC35
:100C10009EE90E9459008CA99DA90E9466008FEC54
:100C20009EE90E94590089E090E00E94660081EDF3
:100C30009EE90E9459008BEB9EE90E945900809129
:100C4000040885FFFCCF86E791E00197F1F700C02B
:100C500000008091080483FD58CEA7EAB1E6119701
:100C6000F1F7F5CF68333FEF7307830793070CF075
:100C700016CF68E37FEF13CF48E349A78FEF8AA72A
:100C800010CF98E599A7A2E0AAA70BCF18E14FCF04
:100C90008E010D5E1F4FF80141E0828193815FEF6D
:100CA000540FDF012D913D9112978217930738F46D
:100CB00012962D933D93515016975F3F99F7A1E0FF
:100CC000A50FAA0FBB0B31E0C32ED12CCC0EDD1E1D
:100CD000AC0DBD1D52968D939D9381E0840F32968D
:100CE0009812D0C19694E92CF12CF601E90DF11D72
:100CF000E90DF11DA288B388BE016F5F7F4FFB0134
:100D0000D80120E08D919D91A816B90608F0BEC1CA
:100D10008A199B09819391934213B6C151E0DB017B
:100D200012968D919D91AFEFA50FFB01208131812E
:100D30008217930730F422833383A1503297AF3F59
:100D4000A9F7E1E0EA0FEE0FFF0B21E0C22ED12C54
:100D5000CC0EDD1EEC0DFD1D808391836E5F7F4FF9
:100D6000451399C1F701EE0FFF1FEC0DFD1D8081AA
:100D700091819C01220F331F820F931F02967C01E9
:100D800020E030E0B901C901D801ED91FD918D015C
:100D9000DF01AA19BB09AE16BF0618F0D501AE1BBC
:100DA000BF0BEA16FB0628F06E0F7F1F811D911DF9
:100DB0002F5F341372C1211509F471C130E040E096
:100DC00050E00E943B0DB8A5BB0F440859016A01D1
:100DD000E12CF12C87012DA13EA14FA158A5642D36
:100DE000742D842D942D0E948E0DA12CEDE2BE2E2B
:100DF000F1E3CF2EF1E0DF2E0E94220EADEDB3E045
:100E00000E94830DA70128EE33E00E945D0DBA0118
:100E1000A90148545109610971094F3F9FEF5907D2
:100E2000610571050CF43FC14EEF5FEF7A01A3E05D
:100E30008A1608F440C12FA538A949A95AA9B901B1
:100E4000CA010E949C0C2B013C012BA53CA54DA581
:100E50005EA5B901CA010E949C0C9B01AC01B201C4
:100E6000C3010E94D40B0E948F0B2B013C01682D03
:100E700070E0C8010E94440C9B01AC01B201C301A7
:100E80000E94400C2B013C0148EC52E498010E9466
:100E90009C0C980140E05FE30E94D40B0E94AC0CD4
:100EA0006BAB2FA538A949A95AA96BA57CA58DA51F
:100EB0009EA50E9488082BED3FE049EC50E40E947B
:100EC000400C5B018C0140E050E09A010E94A00CB4
:100ED00087FF0AC020E030E040E85FE3B501C801C9
:100EE0000E94D40B5B018C0120E030E041E655E428
:100EF000B501C8010E949C0C0E94C10A6B012AE93D
:100F000039E949E15FE3B201C3010E94A00C87FD0A
:100F1000D8C06DA17EA18FA198A50E94460C20E0AB
:100F200030E44CE957E40E94400C6DA37EA38FA3EC
:100F300098A79B01AC01B501C8010E949C0C4B0114
:100F40005C01B70180E090E00E94440C2B013C0161
:100F50009401A5010E94D30B2DA13EA14FA158A53C
:100F60000E94400C0E945D0B9B01AC016DA17EA113
:100F70008FA198A50E949C0C9401A5010E94D40BFE
:100F80005B018C019201A3010E94D30B2B013C0158
:100F9000E89477F820E030E040E05FE36DA17EA1C7
:100FA0008FA198A50E949C0C9B01AC01B201C301CA
:100FB0000E94FF0C18160CF484C040E050E09A0127
:100FC000B501C8010E94A00C87FD71C020E03EEF72
:100FD0004FE757E4B501C8010E94FF0C18162CF426
:100FE000A12C9EEFB92E0FE717E4B501C8010E94AE
:100FF000C10A162F072F83ED9EE90E945900812F09
:10100000902F0E94660086ED9EE90E945900C7015C
:101010000E9466008EED9EE90E945900B0EFCB164B
:10102000B1EFDB0609F050C083EE9EE90E94590043
:1010300086EE9EE90E945900EBA98E2F90E00E9457
:10104000660087EC9EE90E94590089A59AA50E9436
:10105000A7008CEE9EE90E9459008CA99DA90E94D0
:1010600066008FEC9EE90E94590089E090E00E94A2
:1010700066008FEE9EE90E94590080910838909199
:101080000938D3CD482F09CE2F5F3CCE6501C81A51
:10109000D90AC6013FCE5F5F42CE3F5F75CE950154
:1010A00040E050E090CE77FFC1CEA701BFCEA12C8B
:1010B000B12C85019ACF142F052F80EFC82EDC0CA0
:1010C0009ACF1E2D0F2D97CFC6016AE070E00E94C7
:1010D000270D182FCB010E9466008EE20E9452005D
:1010E00080E3810F0E945200A3CF0E94CA0960F0E2
:1010F00080E891E009F49EEF0E94D10928F040E8D1
:1011000051E071F45EEF0CC00C94A0090C94620ADB
:10111000E92FE0780E94280A40F3092E052AB1F34E
:10112000261737074807590738F00E2E07F8E0252D
:1011300069F0E025E0640AC0EF6307F8009407FA5D
:10114000DB01B9019D01DC01CA01AD01EF930E94F1
:10115000FF080E94030A0E94B8085F91552339F0E6
:101160002BED3FE049E450FD49EC0C94D40B08957D
:10117000DF93DD27B92FBF7740E85FE31616170628
:1011800048075B0718F4D92F0E94690A9F938F9331
:101190007F936F930E94CF0BE6EEFDE10E94A309BF
:1011A0000E94030A2F913F914F915F910E94030B80
:1011B000DD2351F09058A2EA2AED3FE049EC5FE3CD
:1011C000D0785D270E94EB0BDF910C94030A0E94FC
:1011D000DA09E3950C94140A0E94D10958F00E9490
:1011E000CA0940F029F45F3F29F00C9471095111AC
:1011F0000C94630A0C94A0090E94280A68F39923AE
:10120000B1F3552391F3951B550BBB27AA27621702
:101210007307840738F09F5F5F4F220F331F441F0F
:10122000AA1FA9F335D00E2E3AF0E0E832D0915043
:101230005040E695001CCAF72BD0FE2F29D0660F30
:10124000771F881FBB1F261737074807AB07B0E873
:1012500009F0BB0B802DBF01FF2793585F4F3AF079
:101260009E3F510578F00C9471090C94630A5F3F1E
:10127000E4F3983ED4F3869577956795B795F795FF
:101280009F5FC9F7880F911D9695879597F90895E7
:10129000E1E0660F771F881FBB1F62177307840783
:1012A000BA0720F0621B730B840BBA0BEE1F88F792
:1012B000E09508950E944A0A90F09F3748F49111F2
:1012C00016F00C94630A60E070E080E89FEB0895EC
:1012D00026F41B16611D711D811D0C9477090C9459
:1012E000920997F99F6780E870E060E0089588238D
:1012F00071F4772321F09850872B762F07C066234F
:1013000011F499270DC09051862B70E060E02AF00F
:101310009A95660F771F881FDAF7880F969587953D
:1013200097F908959F3F31F0915020F48795779574
:101330006795B795880F911D9695879597F90895AC
:101340009FEF80EC0895DF93CF931F930F93FF924D
:10135000EF92DF927B018C01689406C0DA2EEF01D8
:101360000E94030BFE01E894A591259135914591CA
:101370005591A6F3EF010E94EB0BFE019701A80126
:10138000DA9469F7DF90EF90FF900F911F91CF9162
:10139000DF91089500240A94161617061806090608
:1013A000089500240A9412161306140605060895DB
:1013B0000C94A0090E94300AD8F3E894E0E0BB271F
:1013C0009F57F0F02AED3FE049EC06C0EE0FBB0F4F
:1013D000661F771F881F28F0B23A620773078407D9
:1013E00028F0B25A620B730B840BE3959A9572F74F
:1013F000803830F49A95BB0F661F771F881FD2F78D
:1014000090480C949409092E0394000C11F488233D
:1014100052F0BB0F40F4BF2B11F460FF04C06F5FAC
:101420007F4F8F4F9F4F0895EF93E0FF07C0A2EAD1
:101430002AED3FE049EC5FEB0E94EB0B0E94030AB0
:101440000F90039401FC9058E3E1FEE10C94880CAA
:1014500057FD9058440F551F59F05F3F71F0479565
:10146000880F97FB991F61F09F3F79F0879508954A
:10147000121613061406551FF2CF4695F1DF08C069
:10148000161617061806991FF1CF86957105610586
:10149000089408950E94300AA0F0BEE7B91788F4B6
:1014A000BB279F3860F41616B11D672F782F882749
:1014B000985FF7CF869577956795B11D9395963987
:1014C000C8F30895E894BB2766277727CB0197F9DF
:1014D00008959B01AC0160E070E080E89FE30C940C
:1014E000400C16F00C9492090C94A00968940C948A
:1014F00071090E94300AA8F39923C1F3AEF3DF9378
:10150000CF931F930F93FF92C92FDD2788232AF0D3
:101510002197660F771F881FDAF720E030E040E858
:101520005FEB9FE3883920F0803E38F021968F777B
:101530000E94D40BE1E3FEE104C00E94D40BEEE56F
:10154000FEE10E94A3098B01BE01EC01FB2E6F5747
:1015500071097595771F880B990B0E94460C28E13D
:1015600032E741E35FE30E94030BAF2D9801AE0128
:10157000FF900F911F91CF91DF910E94EB0B0C9484
:10158000030A0E94300A58F19E5760F19851A0F06A
:10159000E9F0983020F5092E9927660F771F881FEC
:1015A000991F0A94D1F712C0062E672F782F88272B
:1015B000985F11F4000C07C0993FB4F386957795B6
:1015C00067959395D9F7611D711D811D3EF4909526
:1015D0008095709561957F4F8F4F9F4F08956894C8
:1015E0000C94630A0C94620A0E94CA0938F00E94A3
:1015F000D10920F0952311F00C9471090C94A009E5
:1016000011240C94630A0E94280A70F3959FC1F379
:10161000950F50E0551F629FF001729FBB27F00DA0
:10162000B11D639FAA27F00DB11DAA1F649F6627F5
:10163000B00DA11D661F829F2227B00DA11D621F44
:10164000739FB00DA11D621F839FA00D611D221FFE
:10165000749F3327A00D611D231F849F600D211DE2
:10166000822F762F6A2F11249F5750409AF0F1F065
:1016700088234AF0EE0FFF1FBB1F661F771F881FCE
:1016800091505040A9F79E3F510580F00C9471098C
:101690000C94630A5F3FE4F3983ED4F38695779504
:1016A0006795B795F795E7959F5FC1F7FE2B880F74
:1016B000911D9695879597F908950E94300AE8F054
:1016C0009E37E8F09639B8F49E3848F4672F782FA3
:1016D0008827985FF9CF8695779567959395953983
:1016E000D0F3B62FB1706B0F711D811D20F487955B
:1016F0007795679593950C9477090C9492090C94BF
:10170000630A9F930E94DA090F9007FCEE5F0C9426
:10171000140A19F416F40C94A0090C9492090E946E
:10172000300AB8F39923C9F3B6F39F57550B87FFD7
:101730000E94810C0024A0E640EA90018058569552
:10174000979528F4805C660F771F881F20F0261776
:101750003707480730F4621B730B840B20293129AB
:101760004A2BA69517940794202531254A2758F728
:10177000660F771F881F20F026173707480730F4B9
:10178000620B730B840B200D311D411DA09581F759
:10179000B901842F9158880F9695879508959B01DC
:1017A000AC010C949C0C5058BB27AA270E94EB0B51
:1017B0000C94030A0E94CA0938F00E94D10920F053
:1017C00039F49F3F19F426F40C94A0090EF4E09527
:1017D000E7FB0C947109E92F0E94280A58F3BA1705
:1017E000620773078407950720F079F4A6F50C9437
:1017F000620A0EF4E0950B2EBA2FA02D0B01B90151
:1018000090010C01CA01A0011124FF27591B99F076
:10181000593F50F4503E68F11A16F040A22F232F82
:10182000342F4427585FF3CF469537952795A795D2
:10183000F0405395C9F77EF41F16BA0B620B730B79
:10184000840BBAF09150A1F0FF0FBB1F661F771FEA
:10185000881FC2F70EC0BA0F621F731F841F48F49F
:10186000879577956795B795F7959E3F08F0B0CF28
:101870009395880F08F09927EE0F9795879508950F
:101880000E94FC080C94030AE89409C097FB3EF4FC
:1018900090958095709561957F4F8F4F9F4F9923BD
:1018A000A9F0F92F96E9BB279395F695879577953B
:1018B0006795B795F111F8CFFAF4BB0F11F460FFFB
:1018C0001BC06F5F7F4F8F4F9F4F16C0882311F053
:1018D00096E911C0772321F09EE8872F762F05C067
:1018E000662371F096E8862F70E060E02AF09A9502
:1018F000660F771F881FDAF7880F9695879597F9F7
:10190000089591505040660F771F881FD2F70895B1
:101910009F938F937F936F93FF93EF939B01AC0102
:101920000E949C0CEF91FF910E94A3092F913F917F
:101930004F915F910C949C0C0E94030B0C94030A32
:101940000E94DB0C08F481E008950E94AC0C6894BE
:10195000B1110C94630A08950E94300A88F09F57D1
:1019600098F0B92F9927B751B0F0E1F0660F771FC3
:10197000881F991F1AF0BA95C9F714C0B13091F0B9
:101980000E94620AB1E008950C94620A672F782FD2
:101990008827B85F39F0B93FCCF38695779567957E
:1019A000B395D9F73EF490958095709561957F4FEA
:1019B0008F4F9F4F0895990F0008550FAA0BE0E82D
:1019C000FEEF16161706E807F907C0F01216130601
:1019D000E407F50798F0621B730B840B950B39F441
:1019E0000A2661F0232B242B252B21F408950A26A7
:1019F00009F4A140A6958FEF811D811D08950E94D5
:101A0000DB0C08F48FEF0895A29FB001B39FC001D3
:101A1000A39F700D811D1124911DB29F700D811D1A
:101A20001124911D0895AA1BBB1B51E107C0AA1FD9
:101A3000BB1FA617B70710F0A61BB70B881F991F6F
:101A40005A95A9F780959095BC01CD01089597FB13
:101A5000072E16F4009407D077FD09D00E94130DCD
:101A600007FC05D03EF4909581959F4F08957095A1
:101A700061957F4F0895A1E21A2EAA1BBB1BFD01A1
:101A80000DC0AA1FBB1FEE1FFF1FA217B307E4075D
:101A9000F50720F0A21BB30BE40BF50B661F771FB5
:101AA000881F991F1A9469F7609570958095909595
:101AB0009B01AC01BD01CF010895052E97FB1EF4DB
:101AC00000940E94740D57FD07D00E943B0D07FC47
:101AD00003D04EF40C94740D50954095309521959B
:101AE0003F4F4F4F5F4F089590958095709561954A
:101AF0007F4F8F4F9F4F08950E94040DB7FF0895A9
:101B0000821B930B08950E94040DA59F900DB49F16
:101B1000900DA49F800D911D11240895DF93CF9304
:101B20001F930F939A9DF02D219FF00D8B9DF00D2B
:101B30008A9DE02DF10D039FF00D029FE00DF11D38
:101B40004E9DE00DF11D5E9DF00D4F9DF00D7F93BC
:101B50006F93BF92AF925F934F93D5010E94040D94
:101B60008B01AC01D7010E94040DEB01E80FF91FB6
:101B7000D6010E94DD0D2F913F91D6010E94040DE8
:101B8000C60FD71FE81FF91FAF91BF910E94DD0D4F
:101B90002F913F910E94040DC60FD71FE81FF91F18
:101BA000D6010E94040DE60FF71F9801BE01CF0178
:101BB0000F911F91CF91DF9108950E94040D460F60
:101BC000571FC81FD91F08F43196089597FB57FF78
:101BD0000C94F60D9F938F930E94F60D6E1B7F0B56
:101BE000AF91BF918A0B9B0B0895E894DF93CF933D
:101BF000FC01DB010E94040D7F936F93E9019A01C0
:101C0000AC01BF93AF933F932F93DF010E94040D6C
:101C100026F46C1B7D0B820B930B9E01EB01FC01E8
:101C20000E94DD0DAF91BF912F913F910E94DD0D7C
:101C3000BE01CF01F9012F913F91CF91DF9108951E
:101C4000689401C0E894F92FF12B12F00C94540E13
:101C5000A0E0B0E0EEE2FEE00C94C60E092E059482
:101C600022F40E94B00E112392F4F0E80F26FFEF49
:101C7000E094F09400951095B094C094D094A19401
:101C8000BF0ACF0ADF0AEF0AFF0A0F0B1F0B0E94E1
:101C90005F0E07FC0E94B00ECDB7DEB7ECE00C94EF
:101CA000DF0E689401C0E8948F929F92CF93DF93E8
:101CB0000E945F0EDF91CF919F908F9008958824AE
:101CC0009924F401E401B0E49F93AA279A158B04A8
:101CD0009C04ED05FE05CF05D007A10798F4AD2FB4
:101CE000DC2FCF2FFE2FE92D982C892E982F872FB0
:101CF000762F652F542F432F322F2227B85031F7DC
:101D0000BF9127C01B2EBF91BB27220F331F441F3B
:101D1000551F661F771F881F991F881C991CEE1F6F
:101D2000FF1FCC1FDD1FAA1FBB1F8A149B04EC05DD
:101D3000FD05CE05DF05A007B10748F08A189B080E
:101D4000EC09FD09CE09DF09A00BB10B21601A9443
:101D5000E1F62EF49401AF01BE01CD01000C08950F
:101D6000609570958095909530954095509521950A
:101D70003F4F4F4F5F4F6F4F7F4F8F4F9F4F089594
:101D80002F923F924F925F926F927F928F929F928B
:101D9000AF92BF92CF92DF92EF92FF920F931F9379
:101DA000CF93DF93CDB7DEB7CA1BDB0BCDBFDEBF52
:101DB00009942A88398848885F846E847D848C845D
:101DC0009B84AA84B984C884DF80EE80FD800C8166
:101DD0001B81AA81B981CE0FD11DCDBFDEBFED0120
:101DE0000895F894FFCF084AD73B3BCE016E84BCE0
:101DF000BFFDC12F3D6C74319ABD56833DDA3D0065
:101E0000C77F11BED9E4BB4C3E916BAAAABE0000AD
:101E100000803F05A84CCDB2D44EB93836A9020C8B
:101E200050B9918688083CA6AAAA2ABE0000008064
:101E30003F08000000BE922449123EABAAAA2ABE67
:101E4000CDCCCC4C3E00000080BEABAAAAAA3E007E
:101E5000000000BF000000803F00000000000841BB
:101E600078D3BB4387D1133D190E3CC3BD4282AD2D
:101E70002B3E68EC8276BED98FE1A93E4C80EFFF05
:0C1E8000BE01C4FF7F3F00000000000016
:101E8C003D3D3D205745544920756C747261736F0C
:101E9C006E6963206D6574657220284574617032BB
:101EAC00292052535446523D307800203D3D3D0D83
:101EBC000A0023004E4F204543484F20543D004319
:101ECC002028002F002900443D006D6D202844631C
:101EDC003D002070683D002D2D0020706C763D007B
:101EEC0043200020706B3D003031323334353637AF
:091EFC00383941424344454600D7
:00000001FF
