:100000000C943E000C9450000C9450000C94A700EB
:100010000C9450000C9450000C9450000C94500020
:100020000C9450000C9450000C9450000C94500010
:100030000C9450000C9450000C9450000C94500000
:100040000C9450000C9450000C9450000C945000F0
:100050000C9450000C9450000C9450000C945000E0
:100060000C9450000C9450000C9450000C945000D0
:100070000C9450000C9450000C94500011241FBE9E
:10008000CFEFCDBFDFE3DEBF28E3A0E0B8E301C0E0
:100090001D92A230B207E1F70E94B2000C94D00783
:1000A0000C9400009091040895FFFCCF8093020807
:1000B0000895CF93DF93EC018881811103C0DF9114
:1000C000CF91089521960E945200F6CFFF920F9390
:1000D0001F93CF93DF9300D000D000D0CDB7DEB711
:1000E0009C01892B59F480E32696CDBFDEBFDF91BA
:1000F000CF911F910F91FF900C945200FE01319609
:1001000040E08F01C9016AE070E00E947F03F42E95
:10011000805D80832A30310538F041E04F0D319603
:100120009B0184E0F812EECFF801EF0DF11D808104
:100130000E945200FA948FEFF812F6CF2696CDBFA8
:10014000DEBFDF91CF911F910F91FF9008958F93A4
:10015000EF93FF93E0E0F4E081858187FF91EF91D9
:100160008F911895CDB7DEB76A97CDBFDEBF88ED0A
:1001700021E030E084BF2093610088E08093020496
:1001800089E08093130420E1209301042093060466
:1001900040E24093020484E08093150430E43093FD
:1001A00001043093060491E0909321049093260477
:1001B00080932104809325042093220480933404A7
:1001C0008093100480931104809312048093170489
:1001D00080933104809333048093350480935004DA
:1001E0008093510480935204809353046BE571E033
:1001F000609308087093090823E020930708309360
:10020000060882E5809302064093030610920506D5
:10021000109200068091A200887F82608093A200E5
:100220008091A10088608093A1008FEF8093A90640
:100230009093A8068BE180938A062093880683E139
:10024000809382012093920182E08093410A9093EF
:10025000440A1092450A10924A0A10924B0A90934F
:10026000460A9093400A83E090E1909305042FEDB5
:1002700033E944E0215030404040E1F700C0000045
:1002800090930604EFEDF3E924E0E150F0402040C4
:10029000E1F700C00000815041F710914000109339
:1002A00040008EEF9FE80E945900E12FE295EF7029
:1002B000F0E0E85AFF4680810E9452001F70E12F53
:1002C000F0E0E85AFF4680810E9452008FE190E9F9
:1002D0000E945900212C312C7724739480910804BA
:1002E00083FF91C1EFE4F3EC3197F1F700C0000018
:1002F000F8948091080483FD8DC178948FE493EC89
:100300000197F1F700C000008091080483FB662488
:1003100063F883FDEDCF80E48093060480910006AE
:10032000816080930006E7E8F3E13197F1F700C0C0
:100330000000F5E0F093060670920B067092080636
:1003400080910B0680FFFCCF8091100690911106E2
:1003500080E18093050425E02093060670920B0649
:100360007092080680910B0680FB552450F880FFA0
:10037000F9CF00911006109111060115110509F42D
:1003800065C1B8E58B2EB2E09B2E0F3F33E013071B
:1003900008F06AC06FEF73E0601B710B80E090E0C3
:1003A0000E94380620E030E44CE156E40E94A807A1
:1003B0006B017C01B80180E090E00E9438069B014F
:1003C000AC01B601C7010E94FB0620E030E44CE11D
:1003D00056E40E94FB060E941A0520E030EE46E734
:1003E00055E40E94FB062FE03FEC4BE55BE30E94E7
:1003F000CC059B01AC0160E070E080E89FE30E94C7
:10040000FB0623E333E948E853E40E94CB056B0184
:100410007C0120E030E040E251E40E94A8076B8BB1
:100420007C8B8D8B9E8B40E050E09A01B601C7011A
:100430000E94A30740E030E02FE387FD2FEB822FDF
:1004400020E0582F6B897C898D899E890E94CC057C
:100450000E946D07693542E07407810591050CF42F
:10046000EBC068E572E04B012EE532E0D4010E945A
:10047000C6032AE030E040E050E00E94A703C90133
:10048000DA018C5D914FAA4FBF4F8F8B988FA98F48
:10049000BA8FA9E04A2E7092260410924A0A10924E
:1004A0004B0A7092460A8CE070922504F8E2FA95A5
:1004B000F1F77092260428E22A95F1F78150A1F70E
:1004C000709226048091460AE12CF12C80FF04C032
:1004D000E0904C0AF0904D0A8AE693E00197F1F71C
:1004E00000C000008091460A80FF06C0E0904C0AE0
:1004F000F0904D0A7092460A80914A0A90914B0AF8
:1005000080349C4908F4A7C0E0920038F09201388A
:100510008BE792E90197F1F700C000004A9409F0D7
:10052000BACF9FEF291A390A80E18093060480919F
:1005300000068E7F8093000680E480930504DE0130
:1005400011968D01561408F4BDC087E290E90E940F
:100550005900C1010E94660080E20E945200E2E060
:1005600089E290E96E1690F0862D8695F801E80FE5
:10057000F11DE80FF11D0081118181E390E90E94D6
:100580005900C8010E94660084E390E90E94590066
:1005900087E390E90E94590097FE06C08DE20E9411
:1005A0005200919481949108C4016AE070E00E9425
:1005B0009303182FCB010E9466008EE20E94520026
:1005C00080E3810F0E9452008BE390E90E94590062
:1005D000862D90E00E94660080E490E90E94590018
:1005E00089E090E00E94660082E490E90E94590050
:1005F00080910038909101380E94660084E590E96E
:100600000E9459006BCE83ED90E30197F1F700C093
:10061000000064CE80915000897F809350008091CB
:1006200050008160809350007894889580915000AC
:100630008E7F809350005CCE6833EFEF7E078E078D
:100640009E070CF010CF68E37FEF0DCF18E3812EEB
:100650001FEF912E09CF8091460A80FF4DCFE09089
:100660004C0AF0904D0A7092460A98EBE9169BE00E
:10067000F90608F441CFE0920038F09201389E016B
:100680002F5F3F4F260D311D260D311D2B8B3C8BCF
:1006900000E010E06F89788D898D9A8D9701A8010F
:1006A0000E94CD03A12CEDE2BE2EF1E3CF2EF1E0AE
:1006B000DF2E78010E940904EB89FC8920833183B5
:1006C000639426CF12968D919D9114974FEF450D0F
:1006D000FD01208131818217930730F42283338317
:1006E000415032974F3FA9F7E1E0E40FEE0FFF0BC7
:1006F000E00FF11F808391835394129623CFAA1B9E
:10070000BB1B51E107C0AA1FBB1FA617B70710F0FC
:10071000A61BB70B881F991F5A95A9F7809590952E
:10072000BC01CD01089597FB072E16F4009407D065
:1007300077FD09D00E947F0307FC05D03EF4909519
:1007400081959F4F0895709561957F4F0895052E6F
:1007500097FB1EF400940E94BE0357FD07D00E9431
:10076000E70407FC03D04EF40C94BE03509540956B
:10077000309521953F4F4F4F5F4F0895909580954D
:10078000709561957F4F8F4F9F4F08950E94D804B9
:10079000B7FF0895821B930B089597FB57FF0C94A6
:1007A000DD039F938F930E94DD036E1B7F0BAF9140
:1007B000BF918A0B9B0B0895E894DF93CF93FC01C4
:1007C000DB010E94D8047F936F93E9019A01AC0189
:1007D000BF93AF933F932F93DF010E94D80426F479
:1007E0006C1B7D0B820B930B9E01EB01FC010E94A5
:1007F0000905AF91BF912F913F910E940905BE015C
:10080000CF01F9012F913F91CF91DF910895689425
:1008100001C0E894F92FF12B12F00C943B04A0E0F6
:10082000B0E0E5E1F4E00C94AD04092E059422F467
:100830000E949704112392F4F0E80F26FFEFE09452
:10084000F09400951095B094C094D094A194BF0AF0
:10085000CF0ADF0AEF0AFF0A0F0B1F0B0E944604A4
:1008600007FC0E949704CDB7DEB7ECE00C94C604F9
:10087000689401C0E8948F929F92CF93DF930E9477
:100880004604DF91CF919F908F90089588249924FA
:10089000F401E401B0E49F93AA279A158B049C0409
:1008A000ED05FE05CF05D007A10798F4AD2FDC2F8D
:1008B000CF2FFE2FE92D982C892E982F872F762F5A
:1008C000652F542F432F322F2227B85031F7BF9175
:1008D00027C01B2EBF91BB27220F331F441F551F5C
:1008E000661F771F881F991F881C991CEE1FFF1F0A
:1008F000CC1FDD1FAA1FBB1F8A149B04EC05FD053E
:10090000CE05DF05A007B10748F08A189B08EC095F
:10091000FD09CE09DF09A00BB10B21601A94E1F6A5
:100920002EF49401AF01BE01CD01000C0895609535
:1009300070958095909530954095509521953F4FB5
:100940004F4F5F4F6F4F7F4F8F4F9F4F08952F92A5
:100950003F924F925F926F927F928F929F92AF924F
:10096000BF92CF92DF92EF92FF920F931F93CF939C
:10097000DF93CDB7DEB7CA1BDB0BCDBFDEBF09945B
:100980002A88398848885F846E847D848C849B841F
:10099000AA84B984C884DF80EE80FD800C811B812D
:1009A000AA81B981CE0FD11DCDBFDEBFED01089563
:1009B000A29FB001B39FC001A39F700D811D1124A0
:1009C000911DB29F700D811D1124911D0895A1E20A
:1009D0001A2EAA1BBB1BFD010DC0AA1FBB1FEE1FB9
:1009E000FF1FA217B307E407F50720F0A21BB30B04
:1009F000E40BF50B661F771F881F991F1A9469F780
:100A000060957095809590959B01AC01BD01CF01DB
:100A100008950E94D804460F571FC81FD91F08F415
:100A20003196089516F00C947B060C948906689410
:100A30000C9475060E94DA06A8F39923C1F3AEF36D
:100A4000DF93CF931F930F93FF92C92FDD27882346
:100A50002AF02197660F771F881FDAF720E030E031
:100A600040E85FEB9FE3883920F0803E38F0219624
:100A70008F770E94CC05E4EAFFE004C00E94CC0519
:100A8000E1EDFFE00E948C068B01BE01EC01FB2E24
:100A90006F5771097595771F880B990B0E943A065D
:100AA00028E132E741E35FE30E947105AF2D980131
:100AB000AE01FF900F911F91CF91DF910E94E3054E
:100AC0000C94C1060E94B30638F00E94BA0620F0CA
:100AD000952311F00C9475060C94890611240C943E
:100AE000F5060E94D20670F3959FC1F3950F50E072
:100AF000551F629FF001729FBB27F00DB11D639FD0
:100B0000AA27F00DB11DAA1F649F6627B00DA11D75
:100B1000661F829F2227B00DA11D621F739FB00D1B
:100B2000A11D621F839FA00D611D221F749F33278B
:100B3000A00D611D231F849F600D211D822F762F24
:100B40006A2F11249F5750409AF0F1F088234AF001
:100B5000EE0FFF1FBB1F661F771F881F915050406D
:100B6000A9F79E3F510580F00C9475060C94F5068C
:100B70005F3FE4F3983ED4F3869577956795B795F4
:100B8000F795E7959F5FC1F7FE2B880F911D96950E
:100B9000879597F908955058BB27AA270E94E30527
:100BA0000C94C1060E94B30638F00E94BA0620F0E9
:100BB00039F49F3F19F426F40C9489060EF4E0955D
:100BC000E7FB0C947506E92F0E94D20658F3BA177A
:100BD000620773078407950720F079F4A6F50C9453
:100BE000F4060EF4E0950B2EBA2FA02D0B01B901DF
:100BF00090010C01CA01A0011124FF27591B99F093
:100C0000593F50F4503E68F11A16F040A22F232F9E
:100C1000342F4427585FF3CF469537952795A795EE
:100C2000F0405395C9F77EF41F16BA0B620B730B95
:100C3000840BBAF09150A1F0FF0FBB1F661F771F06
:100C4000881FC2F70EC0BA0F621F731F841F48F4BB
:100C5000879577956795B795F7959E3F08F0B0CF44
:100C60009395880F08F09927EE0F9795879508952B
:100C7000E89409C097FB3EF4909580957095619536
:100C80007F4F8F4F9F4F9923A9F0F92F96E9BB27EC
:100C90009395F695879577956795B795F111F8CF68
:100CA000FAF4BB0F11F460FF1BC06F5F7F4F8F4FD3
:100CB0009F4F16C0882311F096E911C0772321F0C9
:100CC0009EE8872F762F05C0662371F096E8862F61
:100CD00070E060E02AF09A95660F771F881FDAF7B8
:100CE000880F9695879597F9089597F99F6780E8FB
:100CF00070E060E008959F3F31F0915020F48795B7
:100D000077956795B795880F911D9695879597F973
:100D100008959FEF80EC0895DF93CF931F930F9377
:100D2000FF92EF92DF927B018C01689406C0DA2E6D
:100D3000EF010E947105FE01E894A591259135917E
:100D400045915591A6F3EF010E94E305FE0197013D
:100D5000A801DA9469F7DF90EF90FF900F911F914F
:100D6000CF91DF91089500240A94161617061806ED
:100D70000906089500240A9412161306140605069F
:100D80000895092E0394000C11F4882352F0BB0F30
:100D900040F4BF2B11F460FF04C06F5F7F4F8F4F93
:100DA0009F4F089557FD9058440F551F59F05F3FCE
:100DB00071F04795880F97FB991F61F09F3F79F07D
:100DC00087950895121613061406551FF2CF4695FF
:100DD000F1DF08C0161617061806991FF1CF869581
:100DE0007105610508940895E894BB276627772765
:100DF000CB0197F908950E940F070C94C1060E9439
:100E0000BA0658F00E94B30640F029F45F3F29F07B
:100E10000C94750651110C94F5060C9489060E94E9
:100E2000D20668F39923B1F3552391F3951B550B23
:100E3000BB27AA2762177307840738F09F5F5F4FAD
:100E4000220F331F441FAA1FA9F335D00E2E3AF0EC
:100E5000E0E832D091505040E695001CCAF72BD004
:100E6000FE2F29D0660F771F881FBB1F2617370755
:100E70004807AB07B0E809F0BB0B802DBF01FF2787
:100E800093585F4F3AF09E3F510578F00C947506E9
:100E90000C94F5065F3FE4F3983ED4F3869577957E
:100EA0006795B795F7959F5FC9F7880F911D969540
:100EB000879597F90895E1E0660F771F881FBB1F9C
:100EC000621773078407BA0720F0621B730B840B49
:100ED000BA0BEE1F88F7E09508950E947407689496
:100EE000B1110C94F50608950E94DA0688F09F5718
:100EF00098F0B92F9927B751B0F0E1F0660F771F3E
:100F0000881F991F1AF0BA95C9F714C0B13091F033
:100F10000E94F406B1E008950C94F406672F782F30
:100F20008827B85F39F0B93FCCF3869577956795F8
:100F3000B395D9F73EF490958095709561957F4F64
:100F40008F4F9F4F08950E94AC0708F48FEF0895CC
:100F50000E9471050C94C106990F0008550FAA0B49
:100F6000E0E8FEEF16161706E807F907C0F01216BC
:100F70001306E407F50798F0621B730B840B950BBF
:100F800039F40A2661F0232B242B252B21F4089514
:100F90000A2609F4A140A6958FEF811D811D0895B1
:100FA000F894FFCF08000000BE922449123EABAA7D
:100FB000AA2ABECDCCCC4C3E00000080BEABAAAA73
:100FC000AA3E00000000BF000000803F00000000BB
:100FD00000084178D3BB4387D1133D190E3CC3BDF4
:100FE0004282AD2B3E68EC8276BED98FE1A93E4CA1
:0E0FF00080EFFFBE01C4FF7F3F000000000045
:100FFE003D3D3D20424F4F542076322068772D6381
:10100E00617074757265202852535446523D307883
:10101E000029203D3D3D0D0A0023004E4F20454343
:10102E00484F00443D006D6D0020543D004320208C
:10103E0028002F0020686974732C206C61737474FF
:10104E0069636B733D00290D0A003031323334353C
:0B105E00363738394142434445460014
:00000001FF
