:100000000C943E000C9450000C9450000C94500042
:100010000C9450000C9450000C9450000C94500020
:100020000C9450000C9450000C9450000C94500010
:100030000C9450000C9450000C9450000C94500000
:100040000C9450000C9450000C9450000C945000F0
:100050000C9450000C9450000C9450000C945000E0
:100060000C9450000C9450000C9450000C945000D0
:100070000C9450000C9450000C94500011241FBE9E
:10008000CFEFCDBFDFE3DEBF28E3A0E0B8E301C0E0
:100090001D92A830B207E1F70E94C4000C944607F5
:1000A0000C9400009091040895FFFCCF8093020807
:1000B0000895CF93DF93EC018881811103C0DF9114
:1000C000CF91089521960E945200F6CFFF920F9390
:1000D0001F93CF93DF9300D000D000D0CDB7DEB711
:1000E0009C01892B59F480E32696CDBFDEBFDF91BA
:1000F000CF911F910F91FF900C945200FE01319609
:1001000040E08F01C9016AE070E00E94F502F42E20
:10011000805D80832A30310538F041E04F0D319603
:100120009B0184E0F812EECFF801EF0DF11D808104
:100130000E945200FA948FEFF812F6CF2696CDBFA8
:10014000DEBFDF91CF911F910F91FF900895CF9364
:10015000DF93EC0197FF06C08DE20E945200D1951B
:10016000C195D109CE016AE070E00E940903C82F51
:10017000CB010E9466008EE20E94520080E38C0F49
:10018000DF91CF910C94520000D000D00F92CDB7E8
:10019000DEB788ED21E030E084BF2093610084E089
:1001A000809302048093120498E090930204909349
:1001B000130490E1909301049093060430E230938D
:1001C00002048093150420E4209301042093060484
:1001D00091E09093210490932604809321048093CE
:1001E00025044BE551E0409308085093090883E04B
:1001F000809307082093060882E580930206909377
:10020000000630930306109205061092410A1092E0
:10021000440A1092450A2FEF3FEF20934C0A309387
:100220004D0A10924A0A10924B0A9093400AF89491
:1002300080E193E0809305042FE73AE146E0215006
:1002400030404040E1F700C00000809306042FE7F3
:100250003AE146E0215030404040E1F700C0000064
:10026000915041F7809305048AEE9EE80E94590060
:1002700080E49DE0A3E0B0E021E02093250438E293
:100280003A95F1F72093260448E24A95F1F7019751
:10029000A040B04091F780E18093060485E09FE89C
:1002A0000E945900A0E17A2E8091080483FF0FC0BC
:1002B0008FE493EC0197F1F700C0000080910804EF
:1002C00083FF0CC083ED90E30197F1F7F5CF83ED49
:1002D00090E30197F1F700C00000E6CF8FE493ECC4
:1002E0000197F1F700C000008091080483FDEACF78
:1002F0007092050495E09093060621E020930B068A
:100300002093080680910B0680FFFCCF0091100619
:10031000109111060115110509F402C10F3F33E0D8
:10032000130708F002C16FEF73E0601B710B80E0F0
:1003300090E00E94AE0520E030E44CE156E40E94DB
:100340001E076B017C01B80180E090E00E94AE05C1
:100350009B01AC01B601C7010E94710620E030E4A8
:100360004CE156E40E9471060E94900420E030EEB9
:1003700046E755E40E9471062FE03FEC4BE55BE356
:100380000E9442059B01AC0160E070E080E89FE3C1
:100390000E94710623E333E948E853E40E944105D3
:1003A0006B017C0120E030E040E251E40E941E0736
:1003B00069837A838B839C8340E050E09A01B60185
:1003C000C7010E94190740E030E02FE387FD2FEBC3
:1003D000822F20E0582F69817A818B819C810E9435
:1003E00042050E94E306693542E0740781059105E4
:1003F0000CF48CC068E572E069837D8382E08093B1
:1004000006068093060621E020930B06209308063B
:1004100080910B0680FFFCCF809110069091110611
:10042000809306389093073831E030932604109279
:100430004A0A10924B0A88E041E04093250498E272
:100440009A95F1F74093260428E22A95F1F7815016
:1004500099F74093260487EE93E00197F1F700C0E7
:10046000000040930B0640930806212C312C2101FB
:1004700099249A94892C710180914A0A90914B0A8F
:1004800080369A4E08F456C080920438909205380F
:10049000409202385092033820920038309201384E
:1004A000E114F10409F069C07092060489E29FE842
:1004B0000E94590089819D810E94A70084E39FE8E2
:1004C0000E9459008FE39FE80E94590080910638EE
:1004D000909107380E94660087E49FE80E945900C7
:1004E000C4010E9466008DE49FE80E945900C20189
:1004F0000E94660083E59FE80E945900C1010E94A6
:10050000660087E59FE80E945900CECE68332FEF42
:100510007207820792070CF06FCF68E37FEF6CCF12
:1005200038E339834FEF4D8369CF88E5898392E0C3
:100530009D8364CF80910B0680FF9ECF8091100633
:10054000909111068815990508F44C014816590632
:1005500008F42C012FEF221A320A8C31924038F025
:10056000E114F10421F4E0904A0AF0904B0A41E0D2
:1005700040930B06409308067FCF2EE532E0A98119
:10058000BD810E943C032AE030E040E050E00E9440
:100590001D032C5D314F4A4F5F4F00E010E0B90161
:1005A000CA019701A8010E944303A12CEDE2BE2ECF
:1005B000F1E3CF2EF1E0DF2E78010E947F03C90125
:1005C000DA01892B8A2B8B2B69F089017092060442
:1005D00086E39FE80E945900C8010E94660089E3F3
:1005E0009FE866CF70920604F3CFAA1BBB1B51E1B4
:1005F00007C0AA1FBB1FA617B70710F0A61BB70B93
:10060000881F991F5A95A9F780959095BC01CD0137
:10061000089597FB072E16F4009407D077FD09D0B4
:100620000E94F50207FC05D03EF4909581959F4FFE
:100630000895709561957F4F0895052E97FB1EF4E0
:1006400000940E94340357FD07D00E945D0407FC0C
:1006500003D04EF40C943403509540953095219579
:100660003F4F4F4F5F4F08959095809570956195DE
:100670007F4F8F4F9F4F08950E944E04B7FF0895FC
:10068000821B930B089597FB57FF0C9453039F9382
:100690008F930E9453036E1B7F0BAF91BF918A0B08
:1006A0009B0B0895E894DF93CF93FC01DB010E943C
:1006B0004E047F936F93E9019A01AC01BF93AF930E
:1006C0003F932F93DF010E944E0426F46C1B7D0B99
:1006D000820B930B9E01EB01FC010E947F04AF9102
:1006E000BF912F913F910E947F04BE01CF01F9017C
:1006F0002F913F91CF91DF910895689401C0E894C4
:10070000F92FF12B12F00C94B103A0E0B0E0EBE86C
:10071000F3E00C942304092E059422F40E940D04A6
:10072000112392F4F0E80F26FFEFE094F094009587
:100730001095B094C094D094A194BF0ACF0ADF0A58
:10074000EF0AFF0A0F0B1F0B0E94BC0307FC0E945D
:100750000D04CDB7DEB7ECE00C943C04689401C006
:10076000E8948F929F92CF93DF930E94BC03DF9116
:10077000CF919F908F90089588249924F401E401EB
:10078000B0E49F93AA279A158B049C04ED05FE05FF
:10079000CF05D007A10798F4AD2FDC2FCF2FFE2F68
:1007A000E92D982C892E982F872F762F652F542F7F
:1007B000432F322F2227B85031F7BF9127C01B2E6D
:1007C000BF91BB27220F331F441F551F661F771F82
:1007D000881F991F881C991CEE1FFF1FCC1FDD1F4F
:1007E000AA1FBB1F8A149B04EC05FD05CE05DF057F
:1007F000A007B10748F08A189B08EC09FD09CE094B
:10080000DF09A00BB10B21601A94E1F62EF49401DC
:10081000AF01BE01CD01000C0895609570958095E3
:10082000909530954095509521953F4F4F4F5F4F94
:100830006F4F7F4F8F4F9F4F08952F923F924F9250
:100840005F926F927F928F929F92AF92BF92CF9260
:10085000DF92EF92FF920F931F93CF93DF93CDB769
:10086000DEB7CA1BDB0BCDBFDEBF09942A883988EF
:1008700048885F846E847D848C849B84AA84B98438
:10088000C884DF80EE80FD800C811B81AA81B98144
:10089000CE0FD11DCDBFDEBFED010895A29FB001E7
:1008A000B39FC001A39F700D811D1124911DB29FA4
:1008B000700D811D1124911D0895A1E21A2EAA1B0D
:1008C000BB1BFD010DC0AA1FBB1FEE1FFF1FA21700
:1008D000B307E407F50720F0A21BB30BE40BF50BFD
:1008E000661F771F881F991F1A9469F76095709586
:1008F000809590959B01AC01BD01CF0108950E94A8
:100900004E04460F571FC81FD91F08F4319608958B
:1009100016F00C94F1050C94FF0568940C94EB050B
:100920000E945006A8F39923C1F3AEF3DF93CF934F
:100930001F930F93FF92C92FDD2788232AF0219759
:10094000660F771F881FDAF720E030E040E85FEBA2
:100950009FE3883920F0803E38F021968F770E94FF
:100960004205E0E9FEE004C00E944205EDEBFEE036
:100970000E9402068B01BE01EC01FB2E6F5771092C
:100980007595771F880B990B0E94B00528E132E717
:1009900041E35FE30E94E704AF2D9801AE01FF90B1
:1009A0000F911F91CF91DF910E9459050C9437064A
:1009B0000E94290638F00E94300620F0952311F09D
:1009C0000C94EB050C94FF0511240C946B060E940B
:1009D000480670F3959FC1F3950F50E0551F629F35
:1009E000F001729FBB27F00DB11D639FAA27F00D88
:1009F000B11DAA1F649F6627B00DA11D661F829FAF
:100A00002227B00DA11D621F739FB00DA11D621F93
:100A1000839FA00D611D221F749F3327A00D611DB0
:100A2000231F849F600D211D822F762F6A2F112492
:100A30009F5750409AF0F1F088234AF0EE0FFF1FC5
:100A4000BB1F661F771F881F91505040A9F79E3F1C
:100A5000510580F00C94EB050C946B065F3FE4F3BA
:100A6000983ED4F3869577956795B795F795E79572
:100A70009F5FC1F7FE2B880F911D9695879597F97B
:100A800008955058BB27AA270E9459050C94370691
:100A90000E94290638F00E94300620F039F49F3F6A
:100AA00019F426F40C94FF050EF4E095E7FB0C9482
:100AB000EB05E92F0E94480658F3BA17620773073F
:100AC0008407950720F079F4A6F50C946A060EF4D5
:100AD000E0950B2EBA2FA02D0B01B90190010C014E
:100AE000CA01A0011124FF27591B99F0593F50F466
:100AF000503E68F11A16F040A22F232F342F4427BE
:100B0000585FF3CF469537952795A795F0405395B5
:100B1000C9F77EF41F16BA0B620B730B840BBAF085
:100B20009150A1F0FF0FBB1F661F771F881FC2F7F0
:100B30000EC0BA0F621F731F841F48F48795779504
:100B40006795B795F7959E3F08F0B0CF9395880FBE
:100B500008F09927EE0F979587950895E89409C0B6
:100B600097FB3EF490958095709561957F4F8F4FE0
:100B70009F4F9923A9F0F92F96E9BB279395F695F6
:100B8000879577956795B795F111F8CFFAF4BB0F74
:100B900011F460FF1BC06F5F7F4F8F4F9F4F16C0D8
:100BA000882311F096E911C0772321F09EE8872F62
:100BB000762F05C0662371F096E8862F70E060E01E
:100BC0002AF09A95660F771F881FDAF7880F969597
:100BD000879597F9089597F99F6780E870E060E03E
:100BE00008959F3F31F0915020F487957795679550
:100BF000B795880F911D9695879597F908959FEF62
:100C000080EC0895DF93CF931F930F93FF92EF92A1
:100C1000DF927B018C01689406C0DA2EEF010E94FE
:100C2000E704FE01E894A5912591359145915591F0
:100C3000A6F3EF010E945905FE019701A801DA947D
:100C400069F7DF90EF90FF900F911F91CF91DF91A7
:100C5000089500240A941616170618060906089522
:100C600000240A9412161306140605060895092E88
:100C70000394000C11F4882352F0BB0F40F4BF2BF7
:100C800011F460FF04C06F5F7F4F8F4F9F4F089537
:100C900057FD9058440F551F59F05F3F71F047952D
:100CA000880F97FB991F61F09F3F79F08795089512
:100CB000121613061406551FF2CF4695F1DF08C031
:100CC000161617061806991FF1CF8695710561054E
:100CD00008940895E894BB2766277727CB0197F9F6
:100CE00008950E9485060C9437060E94300658F03D
:100CF0000E94290640F029F45F3F29F00C94EB058F
:100D000051110C946B060C94FF050E94480668F381
:100D10009923B1F3552391F3951B550BBB27AA27B4
:100D200062177307840738F09F5F5F4F220F331FEE
:100D3000441FAA1FA9F335D00E2E3AF0E0E832D0B6
:100D400091505040E695001CCAF72BD0FE2F29D0B9
:100D5000660F771F881FBB1F261737074807AB078B
:100D6000B0E809F0BB0B802DBF01FF2793585F4F00
:100D70003AF09E3F510578F00C94EB050C946B060D
:100D80005F3FE4F3983ED4F3869577956795B795E2
:100D9000F7959F5FC9F7880F911D9695879597F9ED
:100DA0000895E1E0660F771F881FBB1F6217730766
:100DB0008407BA0720F0621B730B840BBA0BEE1F7B
:100DC00088F7E09508950E94EA066894B1110C94A2
:100DD0006B0608950E94500688F09F5798F0B92F2F
:100DE0009927B751B0F0E1F0660F771F881F991F60
:100DF0001AF0BA95C9F714C0B13091F00E946A0692
:100E0000B1E008950C946A06672F782F8827B85FA1
:100E100039F0B93FCCF3869577956795B395D9F7B7
:100E20003EF490958095709561957F4F8F4F9F4FC1
:100E300008950E94220708F48FEF08950E94E704A6
:100E40000C943706990F0008550FAA0BE0E8FEEF47
:100E500016161706E807F907C0F012161306E4077E
:100E6000F50798F0621B730B840B950B39F40A2677
:100E700061F0232B242B252B21F408950A2609F455
:100E8000A140A6958FEF811D811D0895F894FFCF95
:100E900008000000BE922449123EABAAAA2ABECD89
:100EA000CCCC4C3E00000080BEABAAAAAA3E0000FB
:100EB0000000BF000000803F0000000000084178F3
:100EC000D3BB4387D1133D190E3CC3BD4282AD2B2A
:100ED0003E68EC8276BED98FE1A93E4C80EFFFBE22
:0A0EE00001C4FF7F3F000000000086
:100EEA00545820544553543A2035732034306B48B3
:100EFA007A206F6E205042300D0A00415474696E98
:100F0A00793136313620756C747261736F6E69632C
:100F1A00206D657465722072656164790D0A004EF0
:100F2A004F204543484F20543D004300443D006D47
:100F3A006D20543D00205B626173653D00206D6940
:100F4A006E3D00206D61783D00206E3D005D0D0A0A
:010F5A000096
:00000001FF
