:100000000C943E000C9450000C9450000C94500042
:100010000C9450000C9450000C9450000C94500020
:100020000C9450000C9450000C9450000C94500010
:100030000C9450000C9450000C9450000C94500000
:100040000C9450000C9450000C9450000C945000F0
:100050000C9450000C9450000C9450000C945000E0
:100060000C9450000C9450000C9450000C945000D0
:100070000C9450000C9450000C94500011241FBE9E
:10008000CFEFCDBFDFE3DEBF28E3A0E0B8E301C0E0
:100090001D92A630B207E1F70E94B7000C948507C5
:1000A0000C9400009091040895FFFCCF8093020807
:1000B0000895CF93DF93EC018881811103C0DF9114
:1000C000CF91089521960E945200F6CFFF920F9390
:1000D0001F93CF93DF9300D000D000D0CDB7DEB711
:1000E0009C01892B59F480E32696CDBFDEBFDF91BA
:1000F000CF911F910F91FF900C945200FE01319609
:1001000040E08F01C9016AE070E00E943403F42EE0
:10011000805D80832A30310538F041E04F0D319603
:100120009B0184E0F812EECFF801EF0DF11D808104
:100130000E945200FA948FEFF812F6CF2696CDBFA8
:10014000DEBFDF91CF911F910F91FF9008958093B3
:10015000060681E080930B068093080680910B06CB
:1001600080FFFCCF80911006909111060895CDB7C5
:10017000DEB76297CDBFDEBF88ED21E030E084BFFF
:100180002093610084E0809302048093120498E03D
:10019000909302049093130490E190930104909340
:1001A000060430E2309302048093150420E4209387
:1001B00001042093060491E0909321049093260477
:1001C00080932104809325044BE551E04093080877
:1001D0005093090883E0809307082093060882E57E
:1001E0008093020690930006309303061092050652
:1001F00014E082E00E94A7001150D9F783E090E15B
:10020000909305042FED33E944E021503040404005
:10021000E1F700C0000090930604EFEDF3E924E05D
:10022000E150F0402040E1F700C00000815041F76C
:10023000109140001093400088E69FE80E9459000A
:10024000E12FE295EF70F0E0E954F04780810E94E1
:1002500052001F70E12FF0E0E954F04780810E94C6
:1002600052008BE79FE80E945900212C312C80918D
:10027000080483FF0FC0EFE4F3EC3197F1F700C0FF
:1002800000008091080483FF0CC083ED90E3019788
:10029000F1F7F5CF83ED90E30197F1F700C000008F
:1002A000E6CFEFE4F3EC3197F1F700C00000809166
:1002B000080483FB772473F883FDE7CFFFEF2F1A41
:1002C0003F0A80E18093050485E00E94A7008C012D
:1002D000009709F49BC18F3F23E0920708F09BC170
:1002E0006FEF73E0681B790B80E090E00E94ED05F2
:1002F00020E030E44CE156E40E945D076B017C0194
:10030000B80180E090E00E94ED059B01AC01B601D0
:10031000C7010E94B00620E030E44CE156E40E94A0
:10032000B0060E94CF0420E030EE46E755E40E947C
:10033000B0062FE03FEC4BE55BE30E9481059B019B
:10034000AC0160E070E080E89FE30E94B00623E328
:1003500033E948E853E40E9480056B017C0120E00A
:1003600030E040E251E40E945D076B877C878D8717
:100370009E8740E050E09A01B601C7010E945807ED
:1003800040E030E02FE387FD2FEB822F20E0582F55
:100390006B857C858D859E850E9481050E94220744
:1003A000693532E07307810591050CF425C168E5D4
:1003B00072E04B012EE532E0D4010E947B032AE07B
:1003C00030E040E050E00E945C03C901DA018C5D3E
:1003D000914FAA4FBF4F8F87988BA98BBA8BB5E0EF
:1003E0004B2E6624639482E00E94A700809300381D
:1003F000909301386092260480E16092250498E28F
:100400009A95F1F760922604E8E2EA95F1F78150B7
:10041000A1F76092260481EE94E00197F1F700C005
:10042000000082E080930606E0910038F0910138E8
:10043000A0E010E0B0E044EF51E07D01B701609230
:100440000B066092080680910B0680FB552450F83D
:1004500080FFF9CF8091100690911106E817F907F7
:1004600008F0DEC08E1B9F0B6817790718F4142F55
:10047000B52FBC01E114F10451F4839708F4D5C001
:10048000AF5FA43020F07A0138E1E31AF108485F49
:100490005F4F443A8FE0580791F6609304387093A9
:1004A000053810930238B0930338E114F10459F180
:1004B000FE013196E70DF11DE70DF11DEB87FC877D
:1004C00000E010E06F85788989899A899701A801F1
:1004D0000E948203F0E8AF2EF4E8BF2EAEE1CA2EF0
:1004E000D12C78010E94BE03D9012CED35E00E9489
:1004F0007B03A70128EE33E00E945C03EB85FC85BB
:100500002083318373948BE792E90197F1F700C060
:1005100000004A9409F067CF80E180930604FE0151
:1005200031968F01571408F482C083E89FE80E9437
:100530005900C1010E94660080E20E94520085E8D5
:100540009FE8711491F0872D8695F801E80FF11D51
:10055000E80FF11D008111818DE89FE80E9459008C
:10056000C8010E94660080E99FE80E94590083E963
:100570009FE80E94590097FE06C08DE20E9452003B
:10058000919481949108C4016AE070E00E9448034C
:10059000182FCB010E9466008EE20E94520080E379
:1005A000810F0E94520087E99FE80E945900872D21
:1005B00090E00E9466008CE99FE80E94590085E067
:1005C00090E00E9466008EE99FE80E9459008091A9
:1005D0000438909105380E9466008FEA9FE80E94D7
:1005E000590080910238909103380E94660081EB97
:1005F0009FE80E9459003BCE68334FEF7407840791
:1006000094070CF0D6CE68E37FEFD3CE08E3802EBC
:100610000FEF902ECFCE18E5812E12E0912ECACE8C
:100620009F01281B390BC9011FCFA0E030CF828169
:1006300093814FEF450DDF012D913D911297821768
:10064000930738F412962D933D93415016974F3FE0
:1006500099F7A1E0A40FAA0FBB0BA00FB11F8D93B8
:100660009D93539432965ECFAA1BBB1B51E107C0EA
:10067000AA1FBB1FA617B70710F0A61BB70B881F32
:10068000991F5A95A9F780959095BC01CD010895C1
:1006900097FB072E16F4009407D077FD09D00E942F
:1006A000340307FC05D03EF4909581959F4F089543
:1006B000709561957F4F0895052E97FB1EF4009469
:1006C0000E94730357FD07D00E949C0407FC03D0CF
:1006D0004EF40C94730350954095309521953F4FFF
:1006E0004F4F5F4F089590958095709561957F4F1E
:1006F0008F4F9F4F08950E948D04B7FF0895821B6E
:10070000930B089597FB57FF0C9492039F938F933D
:100710000E9492036E1B7F0BAF91BF918A0B9B0BC4
:100720000895E894DF93CF93FC01DB010E948D04D0
:100730007F936F93E9019A01AC01BF93AF933F930D
:100740002F93DF010E948D0426F46C1B7D0B820B1E
:10075000930B9E01EB01FC010E94BE04AF91BF917F
:100760002F913F910E94BE04BE01CF01F9012F914C
:100770003F91CF91DF910895689401C0E894F92FDB
:10078000F12B12F00C94F003A0E0B0E0EAECF3E0FF
:100790000C946204092E059422F40E944C04112347
:1007A00092F4F0E80F26FFEFE094F0940095109596
:1007B000B094C094D094A194BF0ACF0ADF0AEF0A84
:1007C000FF0A0F0B1F0B0E94FB0307FC0E944C0447
:1007D000CDB7DEB7ECE00C947B04689401C0E894DC
:1007E0008F929F92CF93DF930E94FB03DF91CF9173
:1007F0009F908F90089588249924F401E401B0E437
:100800009F93AA279A158B049C04ED05FE05CF053E
:10081000D007A10798F4AD2FDC2FCF2FFE2FE92DA5
:10082000982C892E982F872F762F652F542F432FA2
:10083000322F2227B85031F7BF9127C01B2EBF910E
:10084000BB27220F331F441F551F661F771F881FAA
:10085000991F881C991CEE1FFF1FCC1FDD1FAA1FAC
:10086000BB1F8A149B04EC05FD05CE05DF05A00720
:10087000B10748F08A189B08EC09FD09CE09DF0989
:10088000A00BB10B21601A94E1F62EF49401AF0194
:10089000BE01CD01000C08956095709580959095EE
:1008A00030954095509521953F4F4F4F5F4F6F4F7B
:1008B0007F4F8F4F9F4F08952F923F924F925F929D
:1008C0006F927F928F929F92AF92BF92CF92DF9260
:1008D000EF92FF920F931F93CF93DF93CDB7DEB7C5
:1008E000CA1BDB0BCDBFDEBF09942A883988488834
:1008F0005F846E847D848C849B84AA84B984C8843C
:10090000DF80EE80FD800C811B81AA81B981CE0F32
:10091000D11DCDBFDEBFED010895A29FB001B39FF1
:10092000C001A39F700D811D1124911DB29F700DF8
:10093000811D1124911D0895A1E21A2EAA1BBB1B33
:10094000FD010DC0AA1FBB1FEE1FFF1FA217B3079B
:10095000E407F50720F0A21BB30BE40BF50B661FB1
:10096000771F881F991F1A9469F760957095809575
:1009700090959B01AC01BD01CF0108950E948D04AB
:10098000460F571FC81FD91F08F43196089516F057
:100990000C9430060C943E0668940C942A060E942F
:1009A0008F06A8F39923C1F3AEF3DF93CF931F9380
:1009B0000F93FF92C92FDD2788232AF02197660F16
:1009C000771F881FDAF720E030E040E85FEB9FE315
:1009D000883920F0803E38F021968F770E9481057B
:1009E000EEE0FFE004C00E948105EBE3FFE00E941F
:1009F00041068B01BE01EC01FB2E6F577109759505
:100A0000771F880B990B0E94EF0528E132E741E33D
:100A10005FE30E942605AF2D9801AE01FF900F9174
:100A20001F91CF91DF910E9498050C9476060E9449
:100A3000680638F00E946F0620F0952311F00C94A0
:100A40002A060C943E0611240C94AA060E948706DE
:100A500070F3959FC1F3950F50E0551F629FF00111
:100A6000729FBB27F00DB11D639FAA27F00DB11D2A
:100A7000AA1F649F6627B00DA11D661F829F2227B3
:100A8000B00DA11D621F739FB00DA11D621F839F3A
:100A9000A00D611D221F749F3327A00D611D231F10
:100AA000849F600D211D822F762F6A2F11249F575E
:100AB00050409AF0F1F088234AF0EE0FFF1FBB1F61
:100AC000661F771F881F91505040A9F79E3F510520
:100AD00080F00C942A060C94AA065F3FE4F3983E3B
:100AE000D4F3869577956795B795F795E7959F5FCA
:100AF000C1F7FE2B880F911D9695879597F908955C
:100B00005058BB27AA270E9498050C9476060E948D
:100B1000680638F00E946F0620F039F49F3F19F400
:100B200026F40C943E060EF4E095E7FB0C942A069E
:100B3000E92F0E94870658F3BA17620773078407E4
:100B4000950720F079F4A6F50C94A9060EF4E0952B
:100B50000B2EBA2FA02D0B01B90190010C01CA0177
:100B6000A0011124FF27591B99F0593F50F4503E22
:100B700068F11A16F040A22F232F342F4427585F14
:100B8000F3CF469537952795A795F0405395C9F72C
:100B90007EF41F16BA0B620B730B840BBAF09150E4
:100BA000A1F0FF0FBB1F661F771F881FC2F70EC083
:100BB000BA0F621F731F841F48F487957795679556
:100BC000B795F7959E3F08F0B0CF9395880F08F042
:100BD0009927EE0F979587950895E89409C097FB9C
:100BE0003EF490958095709561957F4F8F4F9F4F04
:100BF0009923A9F0F92F96E9BB279395F695879548
:100C000077956795B795F111F8CFFAF4BB0F11F40A
:100C100060FF1BC06F5F7F4F8F4F9F4F16C08823B1
:100C200011F096E911C0772321F09EE8872F762FE7
:100C300005C0662371F096E8862F70E060E02AF028
:100C40009A95660F771F881FDAF7880F9695879514
:100C500097F9089597F99F6780E870E060E008953C
:100C60009F3F31F0915020F4879577956795B79520
:100C7000880F911D9695879597F908959FEF80ECC1
:100C80000895DF93CF931F930F93FF92EF92DF921C
:100C90007B018C01689406C0DA2EEF010E942605C4
:100CA000FE01E894A5912591359145915591A6F3C2
:100CB000EF010E949805FE019701A801DA9469F7F7
:100CC000DF90EF90FF900F911F91CF91DF910895EA
:100CD00000240A941616170618060906089500241B
:100CE0000A9412161306140605060895092E039495
:100CF000000C11F4882352F0BB0F40F4BF2B11F409
:100D000060FF04C06F5F7F4F8F4F9F4F089557FD67
:100D10009058440F551F59F05F3F71F04795880F69
:100D200097FB991F61F09F3F79F087950895121600
:100D300013061406551FF2CF4695F1DF08C01616AC
:100D400017061806991FF1CF86957105610508945D
:100D50000895E894BB2766277727CB0197F9089574
:100D60000E94C4060C9476060E946F0658F00E94FA
:100D7000680640F029F45F3F29F00C942A065111CF
:100D80000C94AA060C943E060E94870668F39923E9
:100D9000B1F3552391F3951B550BBB27AA27621777
:100DA0007307840738F09F5F5F4F220F331F441F84
:100DB000AA1FA9F335D00E2E3AF0E0E832D09150B8
:100DC0005040E695001CCAF72BD0FE2F29D0660FA5
:100DD000771F881FBB1F261737074807AB07B0E8E8
:100DE00009F0BB0B802DBF01FF2793585F4F3AF0EE
:100DF0009E3F510578F00C942A060C94AA065F3F9A
:100E0000E4F3983ED4F3869577956795B795F79573
:100E10009F5FC9F7880F911D9695879597F908955B
:100E2000E1E0660F771F881FBB1F621773078407F7
:100E3000BA0720F0621B730B840BBA0BEE1F88F706
:100E4000E09508950E9429076894B1110C94AA06B0
:100E500008950E948F0688F09F5798F0B92F992720
:100E6000B751B0F0E1F0660F771F881F991F1AF095
:100E7000BA95C9F714C0B13091F00E94A906B1E04B
:100E800008950C94A906672F782F8827B85F39F04A
:100E9000B93FCCF3869577956795B395D9F73EF42E
:100EA00090958095709561957F4F8F4F9F4F0895D6
:100EB0000E94610708F48FEF08950E9426050C94A4
:100EC0007606990F0008550FAA0BE0E8FEEF1616FC
:100ED0001706E807F907C0F012161306E407F5072E
:100EE00098F0621B730B840B950B39F40A2661F0A2
:100EF000232B242B252B21F408950A2609F4A14045
:100F0000A6958FEF811D811D0895F894FFCF0800ED
:100F10000000BE922449123EABAAAA2ABECDCCCC78
:100F20004C3E00000080BEABAAAAAA3E0000000012
:100F3000BF000000803F0000000000084178D3BBE4
:100F40004387D1133D190E3CC3BD4282AD2B3E6891
:100F5000EC8276BED98FE1A93E4C80EFFFBE01C482
:080F6000FF7F3F0000000000CC
:100F68003D3D3D20424F4F54202852535446523D58
:100F780030780029203D3D3D0D0A0023004E4F20CA
:100F88004543484F00443D006D6D0020543D0043EB
:100F9800202028002F0020686974732C206C61734E
:100FA800747065616B3D0040007573290D0A00304F
:100FB80031323334353637383941424344454600B7
:00000001FF
