:100000000C943E000C9448000C9448000C9448005A
:100010000C9448000C9448000C9448000C94480040
:100020000C9448000C9448000C9448000C94480030
:100030000C9448000C9448000C9448000C94480020
:100040000C9448000C9448000C9448000C94480010
:100050000C9448000C9448000C9448000C94480000
:100060000C9448000C9448000C9448000C944800F0
:100070000C9448000C9448000C94480011241FBEB6
:10008000CFEFCDBFDFE3DEBF0E944A000C945D00DE
:100090000C94000080E1809301048093050481E0CA
:1000A000809321048093260480932604E3ECF9E0F6
:0E00B0003197F1F700C00000F7CFF894FFCFB2
:00000001FF
